:0400000060EF00F0BD
:10000800FACF8AF0FBCF8BF0E9CF8CF070EF0BF0D2
:10001800D8CF39F0E8CF3AF0E0CF3BF0FACF3CF058
:10002800FBCF3DF0E9CF3EF0EACF3FF0E1CF40F023
:10003800E2CF41F0D9CF42F0DACF43F0F3CF44F02A
:10004800F4CF45F0F6CF46F0F7CF47F0F8CF48F0B9
:10005800F5CF49F09EA003D09E90BAEC0EF09EAA70
:1000680003D09E9A47EC05F09EB89DA802D0D6EC26
:100078000AF049C0F5FF48C0F8FF47C0F7FF46C07F
:10008800F6FF45C0F4FF44C0F3FF43C0DAFF42C0A7
:10009800D9FF41C0E2FF40C0E1FF3FC0EAFF3EC0D8
:1000A800E9FF3DC0FBFF3CC0FAFF3BC0E0FF3AC0A0
:1000B800E8FF39C0D8FF1000DCEF0CF0000E00019B
:1000C800896F000E0001826F000E0001886F000E1C
:1000D8000001866F000E0001836F010E0001846F1E
:1000E800C6AC24D0C69C000120EE21F00001C65108
:1000F800D9260001C751DA22050EDF6E010E000174
:10010800836F000120EE23F00001C651D9260001BB
:10011800C751DA22DF2A000120EE22F00001C65181
:10012800D9260001C751DA22040EDF6EC7A005D018
:10013800C9CF85F0010E0001896F0001836709D2DC
:10014800F2D1C7A606D2000189514DEC09F0000191
:1001580020EE21F00001C651D9260001C751DA224C
:10016800080EDF62F6D1000E0001896F010E000152
:10017800866FEFD1C7A834D0000120EE20F000012F
:10018800C651D9260001C751DA22DF2A0001895158
:10019800D8B41BD0C7BA04D0010E0001886F15D09F
:1001A800000120EE23F00001C651D9260001C751F5
:1001B800DA22DF2A000120EE22F00001C651D926FA
:1001C8000001C751DA22060EDF6E000120EE21F091
:1001D8000001C651D9260001C751DA22050E03D104
:1001E80000018951D8B4B5D1000120EE20F00001FA
:1001F800C651D9260001C751DA22DF2AC7BA2AD048
:10020800C7B40BD0000120EE21F00001C651D92659
:100218000001C751DA22070EE6D0000120EE21F0D6
:100228000001C651D9260001C751DA22080EDF6E37
:10023800010E0001866F000E0001896F000120EE9B
:100248001EF00001C651D9260001C751DA22000E5E
:10025800DF6E20D0000120EE23F00001C651D92620
:100268000001C751DA22DF2A000120EE21F0000147
:10027800C651D9260001C751DA22050EDF6E0001EA
:1002880020EE22F00001C651D9260001C751DA221A
:10029800060EA9D097EC0FF0000120EE1EF0000129
:1002A800C651D9260001C751DA22DF5000017D6FFF
:1002B8000E0E00017D5DD8B02DD0000120EE1EF09D
:1002C8000001C651D9260001C751DA22DF500001CA
:1002D8007D6F00017D51010D100EF326000EF422F2
:1002E800F3500001C625D96EF4500001C721DA6E1B
:1002F800DF50C96E000120EE1EF00001C651D9265C
:100308000001C751DA22DF2A010E0001826F93EC47
:100318000FF01FD1000120EE21F00001C651D926AF
:100328000001C751DA22050EDF6E8FEC0FF011D1F4
:10033800C7A85BD0000120EE20F00001C651D926E5
:100348000001C751DA22DF2A00018951D8B447D009
:10035800C7AA25D0000120EE0EF00001C651D9260B
:100368000001C751DA22DF5000017D6F00017D5185
:10037800010DF3500001C625D96EF4500001C721C4
:10038800DA6E000185C0DFFF000120EE0EF00001EB
:10039800C651D9260001C751DA22DF2A20D0000130
:1003A80020EE23F00001C651D9260001C751DA22F8
:1003B800DF2A000120EE22F00001C651D9260001F3
:1003C800C751DA22060EDF6E000120EE21F000018F
:1003D800C651D9260001C751DA22050EF5D6010EFD
:1003E8000001886FF2D6DF6EB4D000018951D8B40D
:1003F800B0D0000120EE20F00001C651D92600013E
:10040800C751DA22DF2AC7AA1ED0000120EE0EF05B
:100418000001C651D9260001C751DA22DF50000178
:100428007D6F00017D51010DF3500001C625D96E85
:10043800F4500001C721DA6E000185C0DFFF00011A
:1004480020EE0EF03ED0C7A4ABD6C6C0D9FFC7C0B9
:10045800DAFFDF50060AD8B407D0010EC6C0D9FFAC
:10046800C7C0DAFFDF6235D0000120EE21F00001BD
:10047800C651D9260001C751DA22080EDF6E010ED7
:100488000001886F010E0001866F000E0001896F60
:10049800000120EE1EF00001C651D9260001C75107
:1004A800DA22000EDF6E000120EE10F00001C651C6
:1004B800D9260001C751DA22DF50C96E000120EEAB
:1004C8001EF00001C651D9260001C751DA22DF2AE1
:1004D80040D0000120EE1EF00001C651D9260001CF
:1004E800C751DA22DF5000017D6F0E0E00017D5DDD
:1004F800D8B00ED0000120EE1EF00001C651D9265A
:100508000001C751DA22DF2A000E0001896F21D0CD
:10051800000120EE1EF00001C651D9260001C75186
:10052800DA22000E51D6000120EE21F00001C6515A
:10053800D9260001C751DA22DF50050AD8B401D6FE
:10054800030AD8B417D6010AD8B4F2D60F0AD8B419
:10055800A1D60001896704D000018251D8B402D025
:10056800C6A8C688000120EE0EF00001C651D926A3
:100578000001C751DA220E0EDF6423D0000188671C
:1005880020D0000120EE21F00001C651D92600013B
:10059800C751DA22050EDF6E000120EE23F00001BC
:1005A800C651D9260001C751DA22DF2A000120EE00
:1005B80022F00001C651D9260001C751DA22070EE0
:1005C800DF6E00018851D8B432D0000120EE20F04F
:1005D8000001C651D9260001C751DA22000110EEE8
:1005E8000EF00001C651E1260001C751E222E75092
:1005F80000017D6F00017D51010DF3500001C625FA
:10060800E16EF4500001C721E26EDFCFE7FF280E4C
:100618000001766F0001C7C078F00001C6C077F00E
:100628000E0EA3EC0EF0000120EE0EF041D00001FA
:1006380020EE23F00001C651D9260001C751DA2265
:10064800DF50D8B43DD0000120EE23F00001C651A0
:10065800D9260001C751DA22DF5000017F6F00015F
:1006680020EE22F00001C651D9260001C751DA2236
:10067800DF500001806F000120EE20F00001C6511C
:10068800D9260001C751DA22DF500001816F290EF7
:100698000001766F0001000E0001786F00017F0EE7
:1006A8000001776F030EA3EC0EF0000120EE23F09B
:1006B8000001C651D9260001C751DA22000EDF6EAB
:1006C80000018651D8B41FD0100E0001C6250001C4
:1006D800606F000E0001C7210001616F0E0E88ECEB
:1006E8000DF02A0E0001766F0001C7C078F00001F6
:1006F800C6C077F0000EA3EC0EF0010E0001846F67
:10070800000E0001866F00018451D8B41200000168
:10071800000E0001796F0001870E0001786F100E3E
:100728000001C62500017A6F000E0001C7210001F3
:100738007B6F0E0E41EC0EF000017E6F000E000183
:10074800846F1200E00ED36E9B8C0101010E000134
:10075800996F01015B0E0001986FE6EC0BF0010147
:10076800010E0001996F0101560E0001986F46ECC9
:100778000FF008EC0DF0000E936E000E8A6E960EC8
:10078800F8EC0EF0000E0001986F9B0EEDEC0DF0EA
:100798009F909F9A9F869E0ED0EC0EF09D8672ECDD
:1007A8000FF08BEC0FF087EC0FF083EC0FF07FEC81
:1007B8000FF07BEC0FF077EC0FF01DEC0FF0050E4F
:1007C8000101286F010E01015A6F0FD001015A5122
:1007D800010D0101280EF324D96E0101010EF42048
:1007E800DA6E000EDF6E01015A2B0D0E01015A65FB
:1007F800EDD7070E01011A6F010E01015A6F0FD0D4
:1008080001015A51010D01011A0EF324D96E01019B
:10081800010EF420DA6E000EDF6E01015A2B0D0E68
:1008280001015A65EDD70101010E0101116F0101A6
:10083800590E0101106F0101010E0101136F010131
:10084800370E0101126F0E0E26EC0EF00101586FE3
:10085800010158BF45D036D00101010E0001996F42
:100868000101460E0001986F0101000159C19AF07B
:1008780000019B6B0101585100019C6F00019D6BA9
:1008880000019CBF9D070101010E00019F6F01013E
:10089800370E00019E6F3DEC0FF022D00101010ED2
:1008A8000101136F0101370E0101126F2DEC0FF0DA
:1008B80037C136F115D001013751040AD8B410D028
:1008C800020A0ED0010159510A0AD8B4C5D7220A22
:1008D800D8B4E4D7010AD8B4EBD7030AD8B4EBD715
:1008E8000101010E0101116F0101590E0101106F83
:1008F8000101010E0101136F0101370E0101126F91
:100908000E0E0BEC0EF00101586F010158BF8BD78A
:10091800000E01015A6F0D0E01015A6501D098D0E1
:1009280001015A51010D0101480EF324D96E01014C
:10093800010EF420DA6E000EDF6E01015A2B0D0E47
:1009480001015A65EDD784D00101010E0101136F31
:100958000101560E0101126F010159C114F1010183
:10096800156B010158510101166F0101176B010147
:1009780016BF17070101010E0101196F0101370E9A
:100988000101186F4BEC0CF04ED7F10E0101486FC6
:1009980037C149F10101010E0101136F0101480E30
:1009A8000101126F2DEC0FF03ED7F20E0101486FD6
:1009B80037C149F138C14AF10101010E0101136F34
:1009C8000101480E0101126F2DEC0FF02CD7F30E28
:1009D8000101486F37C149F10101010E0101136F8F
:1009E8000101480E0101126F2DEC0FF01CD7F40E17
:1009F8000101486F37C149F10101010E0101136F6F
:100A08000101480E0101126F2DEC0FF00CD7110EE9
:100A18000101486F37C149F10101010E0101136F4E
:100A28000101480E0101126F2DEC0FF0FCD60101F7
:100A3800010E0101136F0101280E0101126F2DEC47
:100A48000FF0F1D601013751020AD8B4F0D7EBD62E
:100A5800010159510B0AD8B477D7150AD8B495D7DC
:100A6800010AD8B4EFD73F0AD8B48FD7010AD8B44F
:100A78009CD7030AD8B4ABD7010AD8B4B8D7070AA9
:100A8800D8B4C5D7D0D64D663FD04F50010D000120
:100A9800A10EF324D96E0001000EF420DA6EAFCF58
:100AA800DFFF4F6619D00001A129D8B412D05166D2
:100AB8000DD0010E516E50C032F0220E176E000E8E
:100AC800196E320E186E010E0BEC0FF0000E4F6E01
:100AD8001200000E516E17D0100E4F6414D0000192
:100AE800B251FE0AD8B40FD0000E4F6E50C033F08A
:100AF800230E176E000E196E330E186E010E0BECD6
:100B08000FF0010E4E6E4F2A110E4F641200000EA8
:100B18004F6E0001A2515018D8B411D050C030F017
:100B2800A2C031F0210E176E000E196E300E186E2D
:100B3800020E0BEC0FF0A2C050F0010E4E6E000E2C
:100B4800356E000E386E000E376E3850800A800FF2
:100B58000E0ED8B4375CD8B021D0020E37241B6EE5
:100B6800000E38201C6E0001A10E1B24D96E000156
:100B7800000E1C20DA6E1D0E3724E16E000E3820A0
:100B8800E26EDFCFE7FF1D0E3724D96E000E382046
:100B9800DA6EDF50351A374A382AD7D70001B151F3
:100BA8003518D8B411D050C02DF0B1C02EF035C0D2
:100BB8002FF0200E176E000E196E2D0E186E030EF4
:100BC8000BEC0FF0010E4E6E4E662CD01DC036F0A9
:100BD8003650110AD8B41CD03650F10AD8B418D0FF
:100BE8003650F20AD8B414D03650F30AD8B410D01C
:100BF8003650F40AD8B40CD050C034F0240E176E16
:100C0800000E196E340E186E010E0BEC0FF02B6EE1
:100C18001F0E176E000E196E1D0E186E0E0E0BECC1
:100C28000FF02C6E502A000E4E6E1200010120EEBD
:100C380056F001010451D92601010551DA22DF508D
:100C480001010B6F01010B51110DF3500101042536
:100C580001010E6FF4500101052101010F6F010E12
:100C68000EC1D9FF0FC1DAFFDF627FD0010120EE8C
:100C780001F001010E51D92601010F51DA22DF508E
:100C88000101065DD8B002D0FD0E1200010120EE70
:100C980001F001010E51D92601010F51DA22DF506E
:100CA80000019E6F00019E5101010C6F01010D6B47
:100CB800010100010AC199F00101000109C198F080
:100CC800030E01010E2500019E6F000E01010F2188
:100CD80000019F6F9EC09AF09FC09BF00CC19CF0D2
:100CE8000DC19DF034EC0DF0010120EE56F001012C
:100CF8000451D92601010551DA22010110EE56F0FE
:100D080001010451E12601010551E222E7500001E9
:100D18009E6F010E00019E250001986F0001996BDE
:100D2800000E9923000E00019B6F050E00019A6FBB
:100D3800B2EC09F000019851DF6E010120EE02F0DB
:100D480001010E51D92601010F51DA2207C1E1FF35
:100D580008C1E2FFDFCFE7FF0EC1D9FF0FC1DAFFFD
:100D6800000EDF6E01010C511200FC0E1200000192
:100D780020EE56F000016A51D92600016B51DA22A3
:100D8800DF500001736F00017351110DF350000122
:100D98006A250001766FF45000016B210001776F1E
:100DA800010E76C0D9FF77C0DAFFDF627DD000017F
:100DB80020EE01F000017651D92600017751DA22A0
:100DC800DF5000016C5DD8B002D0FD0E12000001AA
:100DD80020EE01F000017651D92600017751DA2280
:100DE800DF500001716F000171510001746F000143
:100DF800756B000170C061F000016FC060F0030EF8
:100E0800000176250001716F000E000177210001B5
:100E1800726F71C062F072C063F074C064F075C024
:100E280065F060EC0DF0000120EE56F000016A510B
:100E3800D92600016B51DA22000110EE56F00001AC
:100E48006A51E12600016B51E222E7500001716FFF
:100E5800010E000171250001606F0001616B000E39
:100E68006123000E0001636F050E0001626F14EC30
:100E78000AF000016051DF6E000120EE02F000016F
:100E88007651D92600017751DA226DC0E1FF6EC094
:100E9800E2FFDFCFE7FF76C0D9FF77C0DAFF000EA9
:100EA800DF6E000174511200FC0E1200010106C130
:100EB8000AF101010B6B010120EE55F0010104510B
:100EC800D92601010551DA22DF5001010C6F010119
:100ED8000C51110DF3500101042501010D6FF4505F
:100EE8000101052101010E6F0DC1D9FF0EC1DAFF05
:100EF800DF50D8B402D0FF0E1200010120EE01F03D
:100F080001010D51D92601010E51DA22010106C154
:100F1800DFFF010120EE02F001010D51D926010188
:100F28000E51DA22010107C1DFFF030E01010D2571
:100F38000001986F000E01010E210001996F010157
:100F4800000109C19BF00101000108C19AF00AC122
:100F58009CF00BC19DF034EC0DF0010120EE55F032
:100F680001010451D92601010551DA22010110EECF
:100F780055F001010451E12601010551E222E75033
:100F880000019E6F010E00019E250001986F00016F
:100F9800996B000E9923000E00019B6F050E00014E
:100FA8009A6FB2EC09F000019851DF6E0DC1D9FFBC
:100FB8000EC1DAFF010EDF6E010E120000016CC0D7
:100FC80071F00001726B000120EE55F000016A51CA
:100FD800D92600016B51DA22DF500001736F00013E
:100FE8007351110DF35000016A250001746FF4501C
:100FF80000016B210001756F74C0D9FF75C0DAFF5D
:10100800DF50D8B402D0FF0E1200000120EE01F02C
:1010180000017451D92600017551DA2200016CC013
:10102800DFFF000120EE02F000017451D926000113
:101038007551DA2200016DC0DFFF030E000174252F
:101048000001606F000E000175210001616F000151
:101058006FC063F000016EC062F071C064F072C0CE
:1010680065F060EC0DF0000120EE55F000016A51CA
:10107800D92600016B51DA22000110EE55F000016B
:101088006A51E12600016B51E222E7500001706FBE
:10109800010E000170250001606F0001616B000EF8
:1010A8006123000E0001636F050E0001626F14ECEE
:1010B8000AF000016051DF6E74C0D9FF75C0DAFF15
:1010C800010EDF6E010E120020EE56F00B50D926ED
:1010D8000C50DA22DF50146E1450110DF3500B240B
:1010E800176EF4500C20186E010E17C0D9FF18C0E7
:1010F800DAFFDF625BD020EE01F01750D9261850D6
:10110800DA22DF500D5CD8B002D0FD0E120020EEBE
:1011180001F01750D9261850DA22DF50126E1250FB
:10112800156E166A11C002F010C001F0030E1724E4
:10113800126E000E1820136E12C003F013C004F0D4
:1011480015C005F016C006F0AEEC0DF020EE56F016
:101158000B50D9260C50DA2210EE56F00B50E1262F
:101168000C50E222E750126E010E1224016E026A40
:10117800000E0222000E046E050E036E28EC0BF022
:101188000150DF6E20EE02F01750D9261850DA22EF
:101198000EC0E1FF0FC0E2FFDFCFE7FF17C0D9FFA6
:1011A80018C0DAFF000EDF6E15501200FC0E120098
:1011B80003C0D9FF04C0DAFFFF0EDF6E20EE01F096
:1011C8000350D9260450DA224CC0DFFF4C2A20EE07
:1011D80011F00350D9260450DA22FE0EDF6E000EFD
:1011E800076E000E086E49D00850010DF350012417
:1011F800D96EF4500220DA6EDF50FF0AD8B40BD053
:101208000850010DF3500124D96EF4500220DA6E13
:10121800FE0EDF6210D00850056E066A020E052623
:10122800000E062205500324D96E06500420DA6EFB
:10123800FD0EDF6E17D00850010DF3500124D96E52
:10124800F4500220DA6E0850056E066A020E052672
:10125800000E062205500324E16E06500420E26EBB
:10126800DFCFE7FF0850010DF3500124D96EF45089
:101278000220DA6EDF50071A082A0D0E0864B4D768
:1012880020EE10F00350D9260450DA2207C0DFFF01
:1012980012000001606F000120EE20F00001C6512D
:1012A800D9260001C751DA22010EDF6E000120EEB7
:1012B8000EF00001C651D9260001C751DA22000EEE
:1012C800DF6E00016051D8B43DD0C7AA21D000011B
:1012D80020EE21F00001C651D9260001C751DA22BB
:1012E800050EDF6E000120EE23F00001C651D9265D
:1012F8000001C751DA22DF2A000120EE22F00001A6
:10130800C651D9260001C751DA22050EDF6E120038
:10131800C7A40CD0000120EE21F00001C651D92647
:101328000001C751DA22080EDF6E1200000120EE1C
:1013380021F00001C651D9260001C751DA22070E53
:10134800DF6E1200000120EE21F00001C651D926FF
:101358000001C751DA22060EDF6E1200000E0001EE
:101368009D6F00019951800AF36E800EF35C000EA8
:10137800D8B4985DD8B009D00001986D0001991FC4
:10138800D8B0992B010E00019D6F00019B51800A76
:10139800F36E800EF35C000ED8B49A5DD8B006D018
:1013A80000019A6D00019B1FD8B09B2B00019B5137
:1013B8009A11D8B426D0010E00019C6F06D0000106
:1013C800D8909A379B3700019C2B00019BAFF7D729
:1013D80000019A510001985D00019B510001995943
:1013E800D8A008D000019A510001985F00019B51D4
:1013F8000001995B0001D8909B339A3300019C2F20
:10140800E7D700019D51D8B406D00001986D0001BE
:10141800991FD8B0992B98C098F099C099F01200EC
:10142800000E0001656F00016151800AF36E800EA5
:10143800F35C000ED8B4605DD8B009D00001606DCF
:101448000001611FD8B0612B010E0001656F00011A
:101458006351800AF36E800EF35C000ED8B4625DAF
:10146800D8B006D00001626D0001631FD8B0632BAD
:10147800000163516211D8B426D0010E0001646FD7
:1014880006D00001D890623763370001642B000151
:1014980063AFF7D7000162510001605D000163513D
:1014A80000016159D8A008D0000162510001605FB5
:1014B800000163510001615B0001D890633362331E
:1014C8000001642FE7D700016551D8B406D00001A8
:1014D800606D0001611FD8B0612B60C060F061C011
:1014E80061F012000DC012F0136A20EE55F00B5097
:1014F800D9260C50DA22DF50146E1450110DF35017
:101508000B24156EF4500C20166E15C0D9FF16C0AA
:10151800DAFFDF50D8B402D0FF0E120020EE01F03F
:101528001550D9261650DA220DC0DFFF20EE02F042
:101538001550D9261650DA220EC0DFFF030E1524E7
:10154800016E000E1620026E10C004F00FC003F0EA
:1015580012C005F013C006F0AEEC0DF020EE55F009
:101568000B50D9260C50DA2210EE55F00B50E1261C
:101578000C50E222E750116E010E1124016E026A2E
:10158800000E0222000E046E050E036E28EC0BF00E
:101598000150DF6E15C0D9FF16C0DAFF010EDF6EED
:1015A800010E12001F0E2C6E5350D8B43AD0000E04
:1015B8001A6E2C0E196E000E1C6E1E0E1B6E0E0E71
:1015C800E4EC0EF02D6E2D50FC0AD8A402D09D98A4
:1015D80012002D50800A7F0FD8A01200000E026E54
:1015E8001E0E016E0001000E046E0001B40E036EA3
:1015F800DCEC08F0000E526E000E536E5250010DD6
:101608000001B40EF324D96E0001000EF420DA6E46
:10161800DF50AE6E522A110E52641200010E536E44
:1016280012005250010D0001B40EF324D96E0001CE
:10163800000EF420DA6EDF50AE6E522A110E52649C
:101648001200010E536E1200000E066E0250800A40
:10165800F36E800EF35C000ED8B4015CD8B006D0EF
:10166800016C021ED8B0022A010E066E0450800AD0
:10167800F36E800EF35C000ED8B4035CD8B004D0CF
:10168800036C041ED8B0042A04500310D8B418D030
:10169800010E056E04D0D89003360436052A04AE30
:1016A800FAD70350015C04500258D8A004D0035064
:1016B800015E0450025AD89004320332052EF1D745
:1016C8000650D8B404D0016C021ED8B0022A01C05A
:1016D80001F002C002F01200EACF8DF0E1CF8EF0E7
:1016E800E2CF8FF0D9CF90F0DACF91F0F3CF92F02C
:1016F800F4CF93F0F6CF94F0F7CF95F0F8CF96F0BB
:10170800F5CF97F09EA603D09E9662EC00F0F2A467
:1017180003D0F294AFEC0BF0ACEC0CF097C0F5FFF3
:1017280096C0F8FF95C0F7FF94C0F6FF93C0F4FF8A
:1017380092C0F3FF91C0DAFF90C0D9FF8FC0E2FFDB
:101748008EC0E1FF8DC0EAFF8CC0E9FF8BC0FBFFB4
:101758008AC0FAFF1100000E0001616F000E00013F
:10176800606F61EC0FF00001000E0001796F00015D
:101778007F0E0001786F0001000E00017B6F0001F1
:10178800810E00017A6F020E41EC0EF000017D6FB0
:1017980000017E6B00017DBF7E0700017D51020ABA
:1017A8007E11D8A412000A0E0001766F0001000E07
:1017B8000001786F0001810E0001776F020EA3EC23
:1017C8000EF01200000199C0C7F0000198C0C6F0E1
:1017D800000120EE0EF00001C651D9260001C751C4
:1017E800DA22000EDF6E000120EE20F00001C65163
:1017F800D9260001C751DA22000EDF6E000120EE63
:1018080021F00001C651D9260001C751DA22050E80
:10181800DF6E000120EE23F00001C651D926000139
:10182800C751DA22000EDF6E1200000120EE55F0DB
:1018380000019851D92600019951DA22000EDF6E75
:10184800000120EE56F000019851D9260001995167
:10185800DA22000EDF6E000E00019A6F040E0001FE
:101868009A6501D0120000019A51110DF350000140
:101878009825D96EF45000019921DA6E000EDF6EBA
:1018880000019A2B040E00019A65EDD712009EEC18
:101898000FF012C1D9FF13C1DAFFDE2A000EDD22D4
:1018A80012C1D9FF13C1DAFF0001DECF98F00001A1
:1018B800DDCF99F0000E00019B6F0A0E00019A6FB0
:1018C8007CEC0CF000019851090A00019911D8A488
:1018D8001200140E01010F6F010113C111F1010172
:1018E80012C110F1020E75EC0EF00001A06F12008B
:1018F80000019B519A11D8B426D0010E00019C6FAB
:1019080006D00001D8909A379B3700019C2B000124
:101918009BAFF7D700019A510001985D00019B51D8
:1019280000019959D8A008D000019A510001985F88
:1019380000019B510001995B0001D8909B339A33B9
:1019480000019C2FE7D798C098F099C099F0120031
:101958000001B36701D01200CEEC0DF00001635115
:1019680000016211D8A412006AEC0FF00001615165
:1019780000016011D8B412000201020E0001616F6B
:101988000201570E0001606F5CEC0EF00009D8A44C
:1019980012000101010E0001616F0101810E0001B9
:1019A800606F5CEC0EF00009D8B49BEC0FF01200ED
:1019B80003EE00F0570EEE6AE806FDE102EE00F0D5
:1019C800AE0EEE6AE806FDE101EE81F0570EEE6A12
:1019D800E806FDE100EEA1F0250EEE6AE806FDE15D
:1019E80000EE4AF0090EEE6AE806FDE1400EF66EDA
:1019F8001F0EF76E000EF86E0900F5CF53F0000EBB
:101A0800F86E0001A6EF03F0000E0001B36F0101AC
:101A1800010E0001996F0101810E0001986F19EC08
:101A28000CF00201020E0001996F0201570E00012D
:101A3800986F19EC0CF00201020E0001996F020177
:101A4800000E0001986F19EC0CF00301030E000161
:101A5800996F0301000E0001986F19EC0CF0120049
:101A6800000101019BC003F1000101019AC002F1CC
:101A78000001010199C001F10001010198C000F1C4
:101A880010D002C1D9FF03C1DAFF00C1E1FF01C1D3
:101A9800E2FFDFCFE7FF0101024B032B0101004BFF
:101AA800012B00019C07D8A09D0700019C29D8B4F0
:101AB8009D29D8B41200E5D7000163C069F0000180
:101AC80062C068F0000161C067F0000160C066F0A4
:101AD80010D068C0D9FF69C0DAFF66C0E1FF67C0EF
:101AE800E2FFDFCFE7FF0001684B692B0001664B7F
:101AF800672B00016407D8A0650700016429D8B4E2
:101B08006529D8B41200E5D70001626F000120EE04
:101B18001FF00001C651D9260001C751DA22000181
:101B280062C0DFFF000120EE1EF00001C651D92679
:101B38000001C751DA22010EDF6E000120EE10F01D
:101B48000001C651D9260001C751DA22DF50C96EFB
:101B5800C688120004C00AF003C009F002C008F0E9
:101B680001C007F00ED009C0D9FF0AC0DAFF07C0CC
:101B7800E1FF08C0E2FFDFCFE7FF094A0A2A074A68
:101B8800082A0506D8A006060528D8B40628D8B419
:101B98001200E9D7F2AC07D0000E0001636F000E07
:101BA8000001626F12006AEC0FF000016151000140
:101BB8006011D8B407D0000E0001636F000E000159
:101BC800626F1200000E0001636F010E0001626F68
:101BD800120000019A6F00019851F30B9A6E9AC097
:101BE80099F07F0E000199170001D8909935CD6EB4
:101BF800000ECF6E000ECE6E9E9000019AAF02D0FE
:101C08009D8001D09D909ABE9A86CD8012000001D9
:101C1800A06F0101010E0101056F0101810E010193
:101C2800046FA0C006F1010111C108F1010110C142
:101C380007F1010113C10AF1010112C109F11AECFE
:101C480006F012000001A06F0201020E0101056FEB
:101C58000201570E0101046FA0C006F1010111C174
:101C680008F1010110C107F1010113C10AF10101D5
:101C780012C109F11AEC06F0120000017C6F030191
:101C8800030E00016B6F0301000E00016A6F7CC038
:101C98006CF0000179C06EF0000178C06DF00001B1
:101CA8007BC070F000017AC06FF0BBEC06F0120048
:101CB800000120EE56F000016051D9260001615163
:101CC800DA22DF500001626F00016251110DF350FA
:101CD80000016025D96EF45000016121DA6EDF50F1
:101CE800120000019F6F0301030E0101056F03013C
:101CF800000E0101046F9FC006F10FC107F1010139
:101D080011C109F1010110C108F15AEC07F01200E4
:101D180000019F6F0201020E0101056F0201000E12
:101D28000101046F9FC006F10FC107F1010111C144
:101D380009F1010110C108F15AEC07F01200000185
:101D4800796F0201020E00016B6F0201570E00014C
:101D58006A6F79C06CF076C06DF0000178C06FF0E2
:101D6800000177C06EF0E2EC07F0120058EC0FF0BB
:101D780001C01BF002C01CF00B0E176E000E196E8E
:101D8800000E186E000E0BEC0FF0000E026E000E27
:101D9800016E4FEC0FF012000001986F9388938A40
:101DA80098C0C8FF000EC76E000EC66E000EC56E46
:101DB8000E0EC612C78E8188818AC580C68A120017
:101DC8001D6E0201020E0C6E0201000E0B6E1DC08C
:101DD8000DF01AC00FF019C00EF01CC011F01BC096
:101DE80010F068EC08F012000001986F000198519B
:101DF8007F0BD56E000ED76E000ED66EF2940001E2
:101E080098AF02D0F28A01D0F29AD58E12001A6EDB
:101E18000101010E0C6E0101810E0B6E1AC00DF04E
:101E280017C00EF019C010F018C00FF076EC0AF0C9
:101E38001200948E949C7E86AD84000E7F6ECF0E29
:101E4800B06EAD98AC8E9F989D989D8AAD8AAC88EF
:101E580012001F0E01010F6F010113C111F10101E1
:101E680012C110F10E0E8CEC0EF00001A06F9D88CF
:101E78001200000101019FC001F1000101019EC093
:101E880000F1120098C0D9FF99C0DAFF000EDE6E8B
:101E9800000EDD6E120001C003F002C004F004C0A1
:101EA800CFFF03C0CEFF1200CECF03F0CFCF04F098
:101EB80003C001F004C002F0120060C062F061C00B
:101EC80063F063C0D7FF62C0D6FF1200000EF2AE07
:101ED800010E0001606F0001616B1200000E956E2B
:101EE800939093921200D08EF28EF28C12008C9EF8
:101EF8008C8E8C9E12008C9C8C8C8C9C12008C9AE4
:101F08008C8A8C9A12008C988C888C9812008C94ED
:101F18008C848C9412008C9A8C8A8C9A12008C98DF
:101F28008C888C9812008C948C848C941200D38E9C
:0A1F3800030012008A70120001007D
:08FFF8008AF795FFF2F9FFF111
:00000001FF
