:0400000060EF00F0BD
:10000800FACF8FF0FBCF90F0E9CF91F074EF0BF0BF
:10001800D8CF39F0E8CF3AF0E0CF3BF0FACF3CF058
:10002800FBCF3DF0E9CF3EF0EACF3FF0E1CF40F023
:10003800E2CF41F0D9CF42F0DACF43F0F3CF44F02A
:10004800F4CF45F0F6CF46F0F7CF47F0F8CF48F0B9
:10005800F5CF49F09EA003D09E9072EC0EF09EAAB8
:1000680003D09E9A70EC06F09EB89DA802D0E1ECF1
:100078000AF049C0F5FF48C0F8FF47C0F7FF46C07F
:10008800F6FF45C0F4FF44C0F3FF43C0DAFF42C0A7
:10009800D9FF41C0E2FF40C0E1FF3FC0EAFF3EC0D8
:1000A800E9FF3DC0FBFF3CC0FAFF3BC0E0FF3AC0A0
:1000B800E8FF39C0D8FF100033EF0BF035EC0FF034
:1000C800000E00018E6F000E0001896F000E000106
:1000D8008D6F000E00018C6F000E00018A6FC6AC98
:1000E80024D0C69C000120EE21F00001D351D9266E
:1000F8000001D451DA22050EDF6E010E00018A6F6D
:10010800000120EE23F00001D351D9260001D4517B
:10011800DA22DF2A000120EE22F00001D351D9268D
:100128000001D451DA22040EDF6EC7A005D0C9CF72
:100138008BF0010E00018E6F00018A675ED247D2F4
:10014800C7A65BD200018E5127EC0AF0000120EE11
:1001580021F00001D351D9260001D451DA22080E2A
:10016800DF624BD2000E00018E6F010E00018C6F12
:1001780044D2C7A82AD0000120EE20F00001D351B4
:10018800D9260001D451DA22DF2A00018E51D8B4D1
:1001980013D2C7BA04D0010E00018D6F0DD2000131
:1001A80020EE23F00001D351D9260001D451DA22E0
:1001B800DF2A000120EE22F00001D351D9260001E8
:1001C800D451DA22060EDF6EF7D100018E51D8B471
:1001D80014D2000120EE20F00001D351D9260001ED
:1001E800D451DA22DF2AC7BA2CD0C7B40BD0000109
:1001F80020EE21F00001D351D9260001D451DA2292
:10020800070E82D02DEC0FF0000120EE21F0000146
:10021800D351D9260001D451DA22080EDF6E010E1F
:1002280000018C6F000E00018E6F000120EE1EF0A1
:100238000001D351D9260001D451DA22000EDF6E15
:1002480020D0000120EE23F00001D351D92600016F
:10025800D451DA22DF2A000120EE21F00001D35127
:10026800D9260001D451DA22050EDF6E000120EEF6
:1002780022F00001D351D9260001D451DA22060E0A
:1002880043D03DEC0FF0000120EE1EF00001D351E9
:10029800D9260001D451DA22DF500001856F0E0EF5
:1002A8000001855DD8B02DD03DEC0FF0000120EEA7
:1002B8001EF00001D351D9260001D451DA22DF50B3
:1002C8000001856F00018551010D100EF326000E07
:1002D800F422F3500001D325D96EF4500001D42143
:1002E800DA6EDF50C96E000120EE1EF00001D35116
:1002F800D9260001D451DA22DF2A010E0001896FC4
:100308007CD12DEC0FF058D1DF6E77D131EC0FF0A6
:10031800C7A85AD0000120EE20F00001D351D926F9
:100328000001D451DA22DF2A00018E51D8B448D016
:10033800C7AA25D0000120EE0EF00001D351D9261E
:100348000001D451DA22DF500001856F0001855188
:10035800010DF3500001D325D96EF4500001D421CA
:10036800DA6E00018BC0DFFF000120EE0EF0000105
:10037800D351D9260001D451DA22DF2A21D0000135
:1003880020EE23F00001D351D9260001D451DA22FE
:10039800DF2A000120EE22F00001D351D926000106
:1003A800D451DA22060EDF6E000120EE21F00001A2
:1003B800D351D9260001D451DA22050EDF6EFCD0C4
:1003C800010E00018D6FF8D000018E51D8B415D1FF
:1003D800000120EE20F00001D351D9260001D451AC
:1003E800DA22DF2AC7AA25D0000120EE0EF000018C
:1003F800D351D9260001D451DA22DF500001856F8C
:1004080000018551010DF3500001D325D96EF45038
:100418000001D421DA6E00018BC0DFFF000120EE5D
:100428000EF00001D351D9260001D451DA22DF2A77
:10043800E4D0C7A4B4D639EC0FF0000120EE21F0C7
:100448000001D351D9260001D451DA22080EDF6EFB
:10045800D3C0D9FFD4C0DAFF000110EE10F00001BC
:10046800D351E1260001D451E222DFCFE7FF00019A
:1004780020EE01F00001D351D9260001D451DA222F
:10048800000110EE11F00001D351E1260001D45112
:10049800E222DFCFE7FF000120EE02F00001D35196
:1004A800D9260001D451DA22000110EE12F0000121
:1004B800D351E1260001D451E222DFCFE7FF00014A
:1004C80020EE03F00001D351D9260001D451DA22DD
:1004D800000110EE13F00001D351E1260001D451C0
:1004E800E222DFCFE7FF000120EE04F00001D35144
:1004F800D9260001D451DA22000110EE14F00001CF
:10050800D351E1260001D451E222DFCFE7FF0001F9
:1005180020EE05F00001D351D9260001D451DA228A
:10052800000110EE15F00001D351E1260001D4516D
:10053800E222DFCFE7FF000120EE1FF00001D351D8
:10054800D9260001D451DA22060EDF6E000120EE12
:100558001EF00001D351D9260001D451DA22000E31
:10056800DF6E010E00018D6F010E00018C6F000E11
:1005780000018E6F000120EE1EF00001D351D92634
:100588000001D451DA22000EDF6E000120EE10F0D7
:100598000001D351D9260001D451DA22DF50C96EA7
:1005A800000120EE1EF00001D351D9260001D451DC
:1005B800DA22DF2AC68821D0000120EE21F00001CE
:1005C800D351D9260001D451DA22050E9DD6000157
:1005D80020EE21F00001D351D9260001D451DA22AE
:1005E800DF50050AD8B4ACD5030AD8B4C2D5010A7D
:1005F800D8B48CD60F0AD8B444D600018E6704D07C
:1006080000018951D8B402D0C6A8C688000120EEDE
:100618000EF00001D351D9260001D451DA220C0E74
:10062800DF6423D000018D6720D0000120EE21F087
:100638000001D351D9260001D451DA22050EDF6E0C
:10064800000120EE23F00001D351D9260001D45136
:10065800DA22DF2A000120EE22F00001D351D92648
:100668000001D451DA22070EDF6E00018D51D8B493
:100678003FD0000120EE20F00001D351D92600011F
:10068800D451DA22000110EE0EF00001D351E12618
:100698000001D451E222E7500001856F0001855125
:1006A800010DF3500001D325E16EF4500001D4216F
:1006B800E26EDFCFE7FF280E0001766F0001D4C09D
:1006C80078F00001D3C077F0000120EE0EF00001B1
:1006D800D351D9260001D451DA22DF500001856FA9
:1006E800000185295BEC0EF0000120EE0EF041D0F0
:1006F800000120EE23F00001D351D9260001D45186
:10070800DA22DF50D8B43DD0000120EE23F00001FA
:10071800D351D9260001D451DA22DF500001866F67
:10072800000120EE22F00001D351D9260001D45156
:10073800DA22DF500001876F000120EE20F000016F
:10074800D351D9260001D451DA22DF500001886F35
:10075800290E0001766F0001000E0001786F00017C
:10076800860E0001776F030E5BEC0EF0000120EEA1
:1007780023F00001D351D9260001D451DA22000E0A
:10078800DF6E00018C51D8B40FD02A0E0001766FAD
:100798000001D4C078F00001D3C077F0000E5BEC04
:1007A8000EF0000E00018C6F0001000E00017E6F3C
:1007B8000001C50E00017D6F000E0001806F510E13
:1007C80000017F6F0101010E0001826F0101920E8D
:1007D8000001816F8AEC0DF01200010E0101646FB7
:1007E800E00ED36E9B8C0101010E0101016F010126
:1007F8006C0E0101006FEAEC0BF00101010E010122
:10080800016F0101680E0101006FE1EC0EF0B1EC1F
:100818000CF0000E936E000E8A6E960E9CEC0EF095
:10082800000E0101006F9B0E6CEC0DF09F909F9ADB
:100838009F860101010E0101016F0101640E010192
:10084800006F9E0EA7EC0DF09D8614EC0FF029ECBE
:100858000FF025EC0FF021EC0FF01DEC0FF019EC68
:100868000FF0C1EC0EF0440E0101436F440E01017C
:10087800446F030E0101346F010E0101676F0FD041
:1008880001016751010D0101340EF324D96E0101F4
:10089800010EF420DA6E000EDF6E0101672B0D0EDB
:1008A80001016765EDD701016451D8B403D0000E8A
:1008B8000101646F0101010E0101196F01016B0E45
:1008C8000101186F0101010E01011B6F0101450EA5
:1008D80001011A6F0E0EDEEC0DF001016A6F0101C5
:1008E8006ABF31D024D00101010E0101016F01015D
:1008F800540E0101006F01016BC102F10101036B8C
:1009080001016A510101046F0101056B010104BF76
:1009180005070101010E0101076F0101450E0101E3
:10092800066F0DEC0FF00FD045C142F10CD001015C
:100938006B510A0AD8B4D7D7220AD8B4F5D7010A16
:10094800D8B4F2D7030A0101010E0101196F0101A0
:100958006B0E0101186F0101010E01011B6F0101EE
:10096800450E01011A6F0E0EC3EC0DF001016A6FFE
:1009780001016ABF98D7000E0101666F000E0101E0
:10098800656F01016651800A800F0E0ED8B4655D4F
:10099800D8B094D00101560E01016525D96E010128
:1009A800010E01016621DA6E000EDF6E0101654B52
:1009B800662BE7D70101010E01011E6F0101680EC8
:1009C80001011D6F01016BC11FF10101206B0101C4
:1009D8006A510101216F0101226B010121BF220728
:1009E8000101010E0101246F0101450E0101236F70
:1009F8007DEC05F058D7F10E0101566F45C157F14E
:100A08000101010E01011B6F0101560E01011A6F50
:100A1800D1EC0EF048D7F20E0101566F45C157F1DF
:100A280046C158F10101010E01011B6F0101560E6B
:100A380001011A6FD1EC0EF036D7F30E0101566F93
:100A480045C157F10101010E01011B6F0101560E4D
:100A580001011A6FD1EC0EF026D7F40E0101566F82
:100A680045C157F10101010E01011B6F0101560E2D
:100A780001011A6FD1EC0EF016D7110E0101566F55
:100A880045C157F10101010E01011B6F0101560E0D
:100A980001011A6FD1EC0EF006D70101010E010118
:100AA8001B6F0101340E01011A6FD1EC0EF0FBD659
:100AB80001014551020AD8B4F0D7F5D601016B51AE
:100AC8000B0AD8B477D7150AD8B495D7010AD8B481
:100AD800EFD73F0AD8B48FD7010AD8B49CD7030AF6
:100AE800D8B4ABD7010AD8B4B8D7070AD8B4C5D791
:100AF800DAD644EC0FF0010E0101266F280E010131
:100B08002A6FA6D0000E0001B26F7F0E0101276F79
:100B18007F0E0101286F0101010E01011B6F010108
:100B2800260E01011A6FD1EC0EF00001D507000165
:100B3800D567A3D0280E0001D56F010E0001B26F52
:100B4800810E0101276F810E0101286F0101010E3D
:100B580001011B6F0101260E01011A6FD1EC0EF085
:100B68008CD00001D5070001D56787D0280E000179
:100B7800D56F020E0001B26F810E0101276F7F0E43
:100B88000101286F0101010E01011B6F0101260EF1
:100B980001011A6FD1EC0EF070D00001D5070001E9
:100BA800D5676BD0280E0001D56F030E0001B26F18
:100BB8007F0E0101276F810E0101286F0101010ECF
:100BC80001011B6F0101260E01011A6FD1EC0EF015
:100BD80054D00001D5070001D5674FD0280E000179
:100BE800D56F040E0001B26F000E0101276F000ED1
:100BF8000101286F0101010E01011B6F0101260E81
:100C080001011A6FD1EC0EF038D00001D5070001B0
:100C1800D56733D0280E0001D56F000E0001B26FE2
:100C28007F0E0101276F7F0E0101286F0101010E60
:100C380001011B6F0101260E01011A6FD1EC0EF0A4
:100C48001CD0280E0001D56F000E0001B26F15D020
:100C58000001B251000AD8B468D7010AD8B481D7C4
:100C6800030AD8B49AD7010AD8B4B3D7070AD8B4B4
:100C7800CCD7010AD8B446D7E4D71DC1D9FF1EC1C5
:100C8800DAFFDE2A000EDD221DC1D9FF1EC1DAFF00
:100C98000101DECF00F10101DDCF01F1000E0101FC
:100CA800036F0A0E0101026F51EC0CF001010051B3
:100CB800090A01010111D8A41200140E0101166FCE
:100CC80001011EC118F101011DC117F1020E44EC0A
:100CD8000EF00101256F12004B663FD04D50010DFB
:100CE80000019D0EF324D96E0001000EF420DA6E87
:100CF800AFCFDFFF4D6619D000019D29D8B412D0BF
:100D08004F660DD0010E4F6E4EC032F0220E176E98
:100D1800000E196E320E186E010EAFEC0EF0000EBA
:100D28004D6E1200000E4F6E17D0100E4D6414D089
:100D38000001AE51FE0AD8B40FD0000E4D6E4EC061
:100D480033F0230E176E000E196E330E186E010E57
:100D5800AFEC0EF0010E4C6E4D2A110E4D641200D0
:100D6800000E4D6E00019E514E18D8B411D04EC0E1
:100D780030F09EC031F0210E176E000E196E300E45
:100D8800186E020EAFEC0EF09EC04EF0010E4C6EC7
:100D9800000E356E000E376E000E366E3750800A24
:100DA800800F0E0ED8B4365CD8B021D0020E36248F
:100DB8001B6E000E37201C6E00019D0E1B24D96E81
:100DC8000001000E1C20DA6E1D0E3624E16E000EA6
:100DD8003720E26EDFCFE7FF1D0E3624D96E000EF6
:100DE8003720DA6EDF50351A364A372AD7D700014E
:100DF800AD513518D8B411D04EC02DF0ADC02EF07D
:100E080035C02FF0200E176E000E196E2D0E186EBD
:100E1800030EAFEC0EF0010E4C6E4C662CD01DC0CC
:100E280038F03850110AD8B41CD03850F10AD8B468
:100E380018D03850F20AD8B414D03850F30AD8B4BD
:100E480010D03850F40AD8B40CD04EC034F0240E68
:100E5800176E000E196E340E186E010EAFEC0EF000
:100E68002B6E1F0E176E000E196E1D0E186E0E0ECD
:100E7800AFEC0EF02C6E4E2A000E4C6E12000101E3
:100E880020EE89F001010A51D92601010B51DA221D
:100E9800DF500101136F01011351110DF3500101CE
:100EA8000A250101166FF45001010B210101176F8A
:100EB800010E16C1D9FF17C1DAFFDF626DD001013B
:100EC80020EE01F001011651D92601011751DA224D
:100ED800DF5001010C5DD8B002D0FD0E12000101F7
:100EE80020EE01F001011651D92601011751DA222D
:100EF800DF500101116F010111510101146F01014E
:100F0800156B010110C101F101010FC100F1030EC0
:100F1800010116250101116F000E010117210101C0
:100F2800126F11C102F112C103F114C104F115C10C
:100F380005F1DDEC0CF0010120EE89F001010A5108
:100F4800D92601010B51DA22010110EE89F00101C5
:100F58000A51E12601010B51E222E7500101116F0C
:100F680001011129070BDF6E010120EE02F00101DA
:100F78001651D92601011751DA220DC1E1FF0EC120
:100F8800E2FFDFCFE7FF16C1D9FF17C1DAFF000E76
:100F9800DF6E010114511200FC0E1200000120EE58
:100FA80089F000016A51D92600016B51DA22DF501D
:100FB8000001736F00017351110DF35000016A2590
:100FC8000001766FF45000016B210001776F010E6C
:100FD80076C0D9FF77C0DAFFDF626DD0000120EE5E
:100FE80001F000017651D92600017751DA22DF504D
:100FF80000016C5DD8B002D0FD0E1200000120EE99
:1010080001F000017651D92600017751DA22DF502C
:101018000001716F000171510001746F0001756B5F
:10102800000170C061F000016FC060F0030E0001A4
:1010380076250001716F000E000177210001726FA3
:1010480071C062F072C063F074C064F075C065F07E
:1010580005EC0DF0000120EE89F000016A51D92657
:1010680000016B51DA22000110EE89F000016A518B
:10107800E12600016B51E222E7500001716F000187
:101088007129070BDF6E000120EE02F00001765196
:10109800D92600017751DA226DC0E1FF6EC0E2FF68
:1010A800DFCFE7FF76C0D9FF77C0DAFF000EDF6E2B
:1010B800000174511200FC0E120001010CC111F163
:1010C8000101126B010120EE88F001010A51D926B5
:1010D80001010B51DA22DF500101136F0101135195
:1010E800110DF35001010A250101146FF45001019B
:1010F8000B210101156F14C1D9FF15C1DAFFDF50AB
:10110800D8B402D0FF0E1200010120EE01F0010157
:101118001451D92601011551DA2201010CC1DFFF52
:10112800010120EE02F001011451D92601011551E7
:10113800DA2201010DC1DFFF030E010114250101AF
:10114800006F000E010115210101016F01010FC19E
:1011580003F101010EC102F111C104F112C105F13F
:10116800DDEC0CF0010120EE88F001010A51D926CE
:1011780001010B51DA22010110EE88F001010A5138
:10118800E12601010B51E222E7500101106F010134
:101198001029070BDF6E14C1D9FF15C1DAFF010E44
:1011A800DF6E010E120000016CC071F00001726B5D
:1011B800000120EE88F000016A51D92600016B5128
:1011C800DA22DF500001736F00017351110DF350E3
:1011D80000016A250001746FF45000016B210001C1
:1011E800756F74C0D9FF75C0DAFFDF50D8B402D06C
:1011F800FF0E1200000120EE01F000017451D92603
:1012080000017551DA2200016CC0DFFF000120EEF9
:1012180002F000017451D92600017551DA2200014B
:101228006DC0DFFF030E000174250001606F000E22
:10123800000175210001616F00016FC063F00001BA
:101248006EC062F071C064F072C065F005EC0DF01C
:10125800000120EE88F000016A51D92600016B5187
:10126800DA22000110EE88F000016A51E12600013F
:101278006B51E222E7500001706F00017029070BE3
:10128800DF6E74C0D9FF75C0DAFF010EDF6E010E84
:10129800120003C0D9FF04C0DAFFFF0EDF6E20EE94
:1012A80001F00350D9260450DA224AC0DFFF4A2A47
:1012B80020EE11F00350D9260450DA22FE0EDF6E1C
:1012C800000E076E000E086E49D00850010DF3504D
:1012D8000124D96EF4500220DA6EDF50FF0AD8B428
:1012E8000BD00850010DF3500124D96EF4500220A0
:1012F800DA6EFE0EDF6210D00850056E066A020E26
:101308000526000E062205500324D96E0650042037
:10131800DA6EFD0EDF6E17D00850010DF350012470
:10132800D96EF4500220DA6E0850056E066A020E75
:101338000526000E062205500324E16E06500420FF
:10134800E26EDFCFE7FF0850010DF3500124D96E9C
:10135800F4500220DA6EDF50071A082A0D0E0864CE
:10136800B4D720EE10F00350D9260450DA2207C073
:10137800DFFF120020EE89F00B50D9260C50DA223C
:10138800DF50146E1450110DF3500B24176EF450E7
:101398000C20186E010E17C0D9FF18C0DAFFDF62E3
:1013A80050D020EE01F01750D9261850DA22DF501D
:1013B8000D5CD8B002D0FD0E120020EE01F01750DF
:1013C800D9261850DA22DF50126E1250156E166A9E
:1013D80011C002F010C001F0030E1724126E000EA7
:1013E8001820136E12C003F013C004F015C005F0E6
:1013F80016C006F02DEC0DF020EE89F00B50D92622
:101408000C50DA2210EE89F00B50E1260C50E22243
:10141800E750126E1228070BDF6E20EE02F017500D
:10142800D9261850DA220EC0E1FF0FC0E2FFDFCF45
:10143800E7FF17C0D9FF18C0DAFF000EDF6E15509E
:101448001200FC0E12000001606F000120EE20F077
:101458000001D351D9260001D451DA22010EDF6EE2
:10146800000120EE0EF00001D351D9260001D4511D
:10147800DA22000EDF6E00016051D8B43DD0C7AA51
:1014880021D0000120EE21F00001D351D92600011E
:10149800D451DA22050EDF6E000120EE23F00001A0
:1014A800D351D9260001D451DA22DF2A000120EED7
:1014B80022F00001D351D9260001D451DA22050EB9
:1014C800DF6E1200C7A40CD0000120EE21F000014D
:1014D800D351D9260001D451DA22080EDF6E12004A
:1014E800000120EE21F00001D351D9260001D4518A
:1014F800DA22070EDF6E1200000120EE21F0000153
:10150800D351D9260001D451DA22060EDF6E12001B
:101518000DC012F0136A20EE88F00B50D9260C503B
:10152800DA22DF50146E1450110DF3500B24156E8F
:10153800F4500C20166E15C0D9FF16C0DAFFDF5024
:10154800D8B402D0FF0E120020EE01F01550D926B3
:101558001650DA220DC0DFFF20EE02F01550D92612
:101568001650DA220EC0DFFF030E1524016E000E9E
:101578001620026E10C004F00FC003F012C005F070
:1015880013C006F02DEC0DF020EE88F00B50D92694
:101598000C50DA2210EE88F00B50E1260C50E222B3
:1015A800E750116E1128070BDF6E15C0D9FF16C062
:1015B800DAFF010EDF6E010E12001F0E2C6E5F5057
:1015C800D8B43AD0000E1A6E2C0E196E000E1C6E8E
:1015D8001E0E1B6E0E0E88EC0EF02D6E2D50FC0AA2
:1015E800D8A402D09D9812002D50800A7F0FD8A051
:1015F8001200000E026E1E0E016E0001000E046E37
:101608000001B30E036E4DEC09F0000E506E000E93
:101618005F6E5050010D0001B30EF324D96E000126
:10162800000EF420DA6EDF50AE6E502A110E5064B0
:101638001200010E5F6E12005050010D0001B30E32
:10164800F324D96E0001000EF420DA6EDF50AE6E7E
:10165800502A110E50641200010E5F6E120005EE42
:1016680000F08A0EEE6AE806FDE104EE00F08A0E4C
:10167800EE6AE806FDE103EE00F08A0EEE6AE8067F
:10168800FDE102EE00F08A0EEE6AE806FDE101EEE9
:1016980092F00E0EEE6AE806FDE100EE9DF0360EC1
:1016A800EE6AE806FDE100EE4AF0150EEE6AE8067D
:1016B800FDE18D0EF66E1E0EF76E000EF86E090037
:1016C800F5CFD5F08C0EF66E1E0EF76E000EF86E86
:1016D8000900F5CF5FF0000EF86E0001F1EF03F09E
:1016E800EACF92F0E1CF93F0E2CF94F0D9CF95F022
:1016F800DACF96F0F3CF97F0F4CF98F0F6CF99F0D1
:10170800F7CF9AF0F8CF9BF0F5CF9CF09EA603D0C8
:101718009E9662EC00F0F2A403D0F294B3EC0BF0C6
:1017280081EC0CF09CC0F5FF9BC0F8FF9AC0F7FF56
:1017380099C0F6FF98C0F4FF97C0F3FF96C0DAFF90
:1017480095C0D9FF94C0E2FF93C0E1FF92C0EAFFC1
:1017580091C0E9FF90C0FBFF8FC0FAFF1100000E97
:101768000001616F000E0001606FFCEC0EF00001DB
:10177800000E0001796F00017F0E0001786F0001F3
:10178800000E00017B6F0001810E00017A6F020ECE
:10179800F9EC0DF000017D6F00017E6B00017DBF4B
:1017A8007E0700017D51020A7E11D8A412000A0E9C
:1017B8000001766F0001000E0001786F0001810EB4
:1017C8000001776F020E5BEC0EF0120001010001C0
:1017D80001C1D4F00101000100C1D3F0000120EEE5
:1017E8000EF00001D351D9260001D451DA22000E9F
:1017F800DF6E000120EE20F00001D351D926000150
:10180800D451DA22000EDF6E000120EE21F0000133
:10181800D351D9260001D451DA22050EDF6E00011A
:1018280020EE23F00001D351D9260001D451DA2249
:10183800000EDF6E1200010120EE88F00101005158
:10184800D92601010151DA22000EDF6E010120EED6
:1018580089F001010051D92601010151DA22000E57
:10186800DF6E000E0101026F070E0101026501D053
:10187800120001010251110DF35001010025D96E2A
:10188800F45001010121DA6E000EDF6E0101022B16
:10189800070E01010265EDD7120001010351021183
:1018A800D8B426D0010E0101046F06D00101D890EA
:1018B800023703370101042B010103AFF7D70101F8
:1018C80002510101005D0101035101010159D8A034
:1018D80008D0010102510101005F0101035101011A
:1018E800015B0101D890033302330101042FE7D7CC
:1018F80000C100F101C101F112000001B16701D07E
:1019080012004DEC0DF00001635100016211D8A4E2
:10191800120005EC0FF00001615100016011D8B40C
:1019280012000301030E0001616F0301000E0001A4
:10193800606F14EC0EF00009D8A412000201020E28
:101948000001616F0201000E0001606F14EC0EF0DF
:101958000009D8B441EC0FF01200000E0001B16F7D
:101968000201020E0101016F0201000E0101006F68
:101978001FEC0CF00301030E0101016F0301000EBF
:101988000101006F1FEC0CF00401040E0101016F4E
:101998000401000E0101006F1FEC0CF00501050E9B
:1019A8000101016F0501000E0101006F1FEC0CF031
:1019B8001200010103C109F1010102C108F101018D
:1019C80001C107F1010100C106F110D008C1D9FF1A
:1019D80009C1DAFF06C1E1FF07C1E2FFDFCFE7FF78
:1019E8000101084B092B0101064B072B01010407D4
:1019F800D8A0050701010429D8B40529D8B41200D4
:101A0800E5D7000163C069F0000162C068F0000119
:101A180061C067F0000160C066F010D068C0D9FFEF
:101A280069C0DAFF66C0E1FF67C0E2FFDFCFE7FF0A
:101A38000001684B692B0001664B672B00016407A6
:101A4800D8A0650700016429D8B46529D8B4120064
:101A5800E5D704C00AF003C009F002C008F001C0CD
:101A680007F00ED009C0D9FF0AC0DAFF07C0E1FFAE
:101A780008C0E2FFDFCFE7FF094A0A2A074A082A17
:101A88000506D8A006060528D8B40628D8B412003A
:101A9800E9D7F2AC07D0000E0001636F000E000119
:101AA800626F120005EC0FF0000161510001601136
:101AB800D8B407D0000E0001636F000E0001626FFA
:101AC8001200000E0001636F010E0001626F120028
:101AD8000101026F01010051F30B9A6E02C101F17D
:101AE8007F0E010101170101D8900135CD6E000E5E
:101AF800CF6E000ECE6E9E90010102AF02D09D8087
:101B080001D09D909ABE9A86CD801200280E0001C1
:101B1800846F0001000E0001796F0001840E00013E
:101B2800786F00017EC07BF000017DC07AF00E0E58
:101B3800F9EC0DF00001836FAFC0D9FFB0C0DAFF38
:101B4800010EDF6E12000101026F0101000101C1E7
:101B5800B0F00101000100C1AFF09388938A02C17F
:101B6800C8FF000EC76E000EC66E000EC56E0E0EC4
:101B7800C612C78E8188818AC580C68A1200010173
:101B88001C6F0201020E01010B6F0201000E010120
:101B98000A6F1CC10CF1010119C10EF1010118C134
:101BA8000DF101011BC110F101011AC10FF143EC44
:101BB80007F0120001011C6F0301030E01010B6FF6
:101BC8000301000E01010A6F1CC10CF1010119C1CA
:101BD8000EF1010118C10DF101011BC110F1010144
:101BE8001AC10FF143EC07F0120000017C6F0501E8
:101BF800050E00016B6F0501000E00016A6F7CC0C5
:101C08006CF0000179C06EF0000178C06DF0000141
:101C18007BC070F000017AC06FF0D2EC07F01200C0
:101C2800000120EE89F000016051D92600016151C0
:101C3800DA22DF500001626F00016251110DF3508A
:101C480000016025D96EF45000016121DA6EDF5081
:101C580012000101196F0401040E01010B6F040148
:101C6800000E01010A6F19C10CF116C10DF1010135
:101C780018C10FF1010117C10EF161EC08F0120053
:101C88000101196F0501050E01010B6F0501000E19
:101C980001010A6F19C10CF116C10DF1010118C13A
:101CA8000FF1010117C10EF161EC08F012000001FB
:101CB800796F0301030E00016B6F0301000E000131
:101CC8006A6F79C06CF076C06DF0000178C06FF073
:101CD800000177C06EF0D7EC08F01200F3EC0EF0BC
:101CE80001C01BF002C01CF00B0E176E000E196E1F
:101CF800000E186E000EAFEC0EF0000E026E000E15
:101D0800016EEAEC0EF012001D6E0401040E0C6E5A
:101D18000401000E0B6E1DC00DF01AC00FF019C0A3
:101D28000EF01CC011F01BC010F0BEEC09F0120040
:101D38000101006F010100517F0BD56E000ED76EB7
:101D4800000ED66EF294010100AF02D0F28A01D0E3
:101D5800F29AD58E12001A6E0201020E0C6E020162
:101D6800000E0B6E1AC00DF017C00EF019C010F05F
:101D780018C00FF08CEC0AF01200948E949C7E86AA
:101D8800AD84000E7F6ECF0EB06EAD98AC8E9F986E
:101D98009D989D8AAD8AAC8812001F0E0101166FAE
:101DA80001011BC118F101011AC117F10E0E2DEC2A
:101DB8000EF001011C6F9D88120000C1D9FF01C1FE
:101DC800DAFF000EDE6E000EDD6E120001C003F0B9
:101DD80002C004F004C0CFFF03C0CEFF1200CECF74
:101DE80003F0CFCF04F003C001F004C002F01200EA
:101DF80060C062F061C063F063C0D7FF62C0D6FF05
:101E08001200000EF2AE010E0001606F0001616B5E
:101E18001200010107C109F1010106C108F1120010
:101E2800000E956E939093921200D08EF28EF28CE3
:101E380012008C9C8C8C8C9C12008C9A8C8A8C9AAC
:101E480012008C988C888C9812008C948C848C94BA
:101E580012008C9C8C8C8C9C12008C9A8C8A8C9A8C
:101E680012008C988C888C9812008C948C848C949A
:101E780012008C9E8C8E8C9E1200D38E0300120052
:061E88008A70120001281F
:08FFF8008AF795FFF2F9FFF111
:00000001FF
