:0400000060EF00F0BD
:10000800FACF84F0FBCF85F0E9CF86F035EF08F022
:10001800D8CF39F0E8CF3AF0E0CF3BF0FACF3CF058
:10002800FBCF3DF0E9CF3EF0EACF3FF0E1CF40F023
:10003800E2CF41F0D9CF42F0DACF43F0F3CF44F02A
:10004800F4CF45F0F6CF46F0F7CF47F0F8CF48F0B9
:10005800F5CF49F09EA003D09E903FEC0CF09EAAED
:1000680003D09E9ACDEC03F09EB89DA802D0E3EC95
:1000780007F049C0F5FF48C0F8FF47C0F7FF46C082
:10008800F6FF45C0F4FF44C0F3FF43C0DAFF42C0A7
:10009800D9FF41C0E2FF40C0E1FF3FC0EAFF3EC0D8
:1000A800E9FF3DC0FBFF3CC0FAFF3BC0E0FF3AC0A0
:1000B800E8FF39C0D8FF10001CEF09F08C9E8C8E29
:1000C800280E0001826F010E0001816FA5D1000189
:1000D800000E0001796F0001820E0001786F100E8A
:1000E8000001CC2500017A6F000E0001CD2100012E
:1000F8007B6F0E0E95EC0BF00001836F00018351AE
:10010800FC0AD8B4ABD100018351FD0AD8B4A6D1FA
:10011800000120EE1EF00001CC51D9260001CD517E
:10012800DA22000EDF6E000120EE0FF00001CC5144
:10013800D9260001CD51DA22000EDF6E000120EE33
:100148001FF00001CC51D9260001CD51DA2200015F
:1001580083C0DFFFC580000120EE21F00001CC51F3
:10016800D9260001CD51DA22060E03D0C7B603D036
:10017800BCD0DF6E73D1C7B0B8D0000120EE25F037
:100188000001CC51D9260001CD51DA22DF500001FF
:100198007D6F0001D8907D35C96E000120EE21F0F9
:1001A8000001CC51D9260001CD51DA220A0EDF6EAA
:1001B800000120EE1EF063D0C7B050D1000120EE40
:1001C8001EF00001CC51D9260001CD51DA22DF50B2
:1001D80000017D6F00017D51010D100EF326000E08
:1001E800F422F3500001CC25D96EF4500001CD2142
:1001F800DA6EDF50C96E000120EE1EF00001CC510E
:10020800D9260001CD51DA22DF2A000120EE1EF0A6
:100218000001CC51D9260001CD51DA220D0EDF6440
:100228001DD1000120EE10F00001CC51D9260001AB
:10023800CD51DA22DF500001806F06D0010E01D0C7
:10024800000E0001816F09D000018051040AD8B462
:10025800F5D7020AD8B4F2D7F3D700018151D8B440
:1002680016D0000120EE21F00001CC51D926000162
:10027800CD51DA220C0EDF6E000120EE0FF00001E6
:10028800CC51D9260001CD51DA22000E72D70001D7
:1002980020EE21F00001CC51D9260001CD51DA22FF
:1002A8000B0E67D7C582000120EE21F00001CC516A
:1002B800D9260001CD51DA220D0E5BD7C7B6C7B0DB
:1002C80014D0000120EE25F00001CC51D926000100
:1002D800CD51DA22DF5000017D6F0001D8807D35D5
:1002E800C96E82D0C5AC0CD08AD0000120EE21F0B6
:1002F8000001CC51D9260001CD51DA22050E39D79B
:10030800C586000120EE1EF00001CC51D92600015F
:10031800CD51DA22000EDF6E000120EE21F000013F
:10032800CC51D9260001CD51DA22080E22D7C7A018
:1003380095D0000120EE0FF00001CC51D926000124
:10034800CD51DA22DF5000017D6F00017D51010D92
:10035800F3500001CC25D96EF4500001CD21DA6E9E
:10036800C9CFDFFF000120EE0FF00001CC51D926E4
:100378000001CD51DA22DF2A000120EE0FF0000142
:10038800CC51D9260001CD51DA220D0EDF640FD0F1
:10039800280E0001766F0001CDC078F00001CCC0B6
:1003A80077F00E0E28EC0CF000017E6F10D0C7A875
:1003B8001AD0280E0001766F0001CDC078F0000138
:1003C800CCC077F00E0E28EC0CF000017F6F000116
:1003D80020EE21F00001CC51D9260001CD51DA22BE
:1003E8000B0EDF6E0CD0C588000120EE21F0000155
:1003F800CC51D9260001CD51DA220E0EBAD6C584C9
:10040800000120EE1EF00001CC51D9260001CD518B
:10041800DA22000EDF6E69D7000120EE21F000011C
:10042800CC51D9260001CD51DA22DF50050AD8B4C3
:100438004ED6030AD8B49AD60E0AD8B478D7020A88
:10044800D8B4BAD6010AD8B4DAD7070AD8B42AD7A2
:10045800010AD8B433D7030AD8B444D78C8E8C9EFB
:100468001200E00ED36E9B8C0101010E0001936F08
:100478000101CF0E0001926F74EC08F00101010E2A
:100488000001936F0101CB0E0001926FBAEC0CF0E2
:1004980041EC0AF0000E936E000E8A6E960E69EC1F
:1004A8000CF0000E0001926F9B0E77EC0BF09F9002
:1004B8009F9A9F864F0EE1EC09F09D86F5EC0CF0B3
:1004C8000EEC0DF00AEC0DF006EC0DF002EC0DF060
:1004D800FEEC0CF0FAEC0CF0A0EC0CF0030E0101B1
:1004E800986F010E0101CA6F0FD00101CA51010DA9
:1004F8000101980EF324D96E0101010EF420DA6E81
:10050800000EDF6E0101CA2B0D0E0101CA65EDD781
:10051800540E0101A76F450E0101A86F80EC09F088
:100528000101010E0101906F0101CE0E01018F6FD3
:100538000101010E0101926F0101A90E0101916FE4
:100548000E0E1BEC0BF00101CD6F0101CDBF3CD0AD
:100558002FD00101010E0001936F0101B80E0001B7
:10056800926F01010001CEC194F00001956B010169
:10057800CD510001966F0001976B000196BF970758
:100588000101010E0001996F0101A90E0001986F88
:10059800EEEC0CF019D00101010E0101906F010180
:1005A800A90E01018F6F7CEC0CF0A9C1A6F10CD04B
:1005B8000101CE510A0AD8B4CCD7220AD8B4EBD755
:1005C800010AD8B4F2D7030A0101010E0101906FA4
:1005D8000101CE0E01018F6F0101010E0101926F21
:1005E8000101A90E0101916F0E0EFCEC0AF0010148
:1005F800CD6F0101CDBF92D7000E0101C96F000E6A
:100608000101C86F0101C951800A800F0E0ED8B4CC
:10061800C85DD8B0A3D00101BA0E0101C825D96EB2
:100628000101010E0101C921DA6E000EDF6E010120
:10063800C84BC92BE7D70101010E0101906F0101D9
:10064800CB0E01018F6F0101CEC191F10101926BB7
:100658000101CD510101936F0101946B010193BF19
:1006680094070101010E0101966F0101A90E010114
:10067800956FE9EC08F052D7F10E0101BA6FA9C1E4
:10068800BBF10101010E0101906F0101BA0E0101D8
:100698008F6F7CEC0CF042D7F20E0101BA6FA9C142
:1006A800BBF1AAC1BCF10101010E0101906F01016A
:1006B800BA0E01018F6F7CEC0CF030D7F30E0101FC
:1006C800BA6FA9C1BBF10101010E0101906F0101CF
:1006D800BA0E01018F6F7CEC0CF020D7F40E0101EB
:1006E800BA6FA9C1BBF10101010E0101906F0101AF
:1006F800BA0E01018F6F7CEC0CF010D7110E0101BE
:10070800BA6FA9C1BBF10101010E0101906F01018E
:10071800BA0E01018F6F7CEC0CF000D70101010EBD
:100728000101906F0101980E01018F6F7CEC0CF0B4
:10073800F5D60101010E0101906F0101A90E010119
:100748008F6F0E0EE2EC0BF0E9D60101A951010AF8
:10075800D8B4EFD7030AD8B4E1D7E0D60101CE5117
:100768000B0AD8B468D7150AD8B486D7010AD8B402
:10077800ECD73F0AD8B480D7010AD8B48DD7030A7A
:10078800D8B49CD7010AD8B4A9D7070AD8B4B6D721
:10079800C5D61EEC0DF04B6641D01AEC0DF04D504D
:1007A800010D0001A70EF324D96E0001000EF420FC
:1007B800DA6EAFCFDFFF4D6619D00001A729D8B494
:1007C80012D04F660DD0010E4F6E4EC032F0220E81
:1007D800176E000E196E320E186E010E8EEC0CF0AC
:1007E800000E4D6E1200000E4F6E17D0100E4D64A5
:1007F80014D00001B851FE0AD8B40FD0000E4D6EC7
:100808004EC033F0230E176E000E196E330E186E9D
:10081800010E8EEC0CF0010E4C6E4D2A110E4D643B
:10082800120016EC0DF0000E4D6E0001A8514E1886
:10083800D8B411D04EC030F0A8C031F0210E176ED8
:10084800000E196E300E186E020E8EEC0CF0A8C059
:100858004EF0010E4C6E000E356E000E376E000E17
:10086800366E3750800A800F0E0ED8B4365CD8B07A
:1008780021D0020E36241B6E000E37201C6E00019C
:10088800A70E1B24D96E0001000E1C20DA6E1D0E67
:100898003624E16E000E3720E26EDFCFE7FF1D0E33
:1008A8003624D96E000E3720DA6EDF50351A364AF4
:1008B800372AD7D70001B7513518D8B411D04EC050
:1008C8002DF0B7C02EF035C02FF0200E176E000E99
:1008D800196E2D0E186E030E8EEC0CF0010E4C6E78
:1008E8004C662DD01DC038F03850110AD8B41CD031
:1008F8003850F10AD8B418D03850F20AD8B414D005
:100908003850F30AD8B410D03850F40AD8B40CD000
:100918004EC034F0240E176E000E196E340E186E89
:10092800010E8EEC0CF02B6E1F0E176E000E196E5A
:100938001D0E186E0E0E8EEC0CF02C6E02D012EC02
:100948000DF04E2A000E4C6E1200000120EE89F0C8
:1009580000019C51D92600019D51DA22DF50010186
:100968008A6F01018A51110DF35000019C25010184
:100978008D6FF45000019D2101018E6F010E8DC114
:10098800D9FF8EC1DAFFDF626DD0010120EE01F0E0
:1009980001018D51D92601018E51DA22DF50000163
:1009A8009E5DD8B002D0FD0E1200010120EE01F0CC
:1009B80001018D51D92601018E51DA22DF50000143
:1009C800A36F0001A35101018B6F01018C6B000122
:1009D800A2C093F00001A1C092F0030E01018D2581
:1009E8000001A36F000E01018E210001A46FA3C0B6
:1009F80094F0A4C095F08BC196F08CC197F06DEC83
:100A08000AF0000120EE89F000019C51D92600016E
:100A18009D51DA22000110EE89F000019C51E12677
:100A280000019D51E222E7500001A36F0001A329B4
:100A3800070BDF6E010120EE02F001018D51D9266E
:100A480001018E51DA229FC0E1FFA0C0E2FFDFCF93
:100A5800E7FF8DC1D9FF8EC1DAFF000EDF6E0101FD
:100A68008B511200FC0E1200000120EE89F00001EB
:100A78006A51D92600016B51DA22DF500001736FE9
:100A880000017351110DF35000016A250001766FC2
:100A9800F45000016B210001776F010E76C0D9FF79
:100AA80077C0DAFFDF626DD0000120EE01F00001AF
:100AB8007651D92600017751DA22DF5000016C5DAA
:100AC800D8B002D0FD0E1200000120EE01F00001A6
:100AD8007651D92600017751DA22DF500001716F73
:100AE800000171510001746F0001756B000170C045
:100AF80061F000016FC060F0030E0001762500016F
:100B0800716F000E000177210001726F71C062F0F1
:100B180072C063F074C064F075C065F095EC0AF0BB
:100B2800000120EE89F000016A51D92600016B51BD
:100B3800DA22000110EE89F000016A51E126000175
:100B48006B51E222E7500001716F00017129070B18
:100B5800DF6E000120EE02F000017651D926000177
:100B68007751DA226DC0E1FF6EC0E2FFDFCFE7FF09
:100B780076C0D9FF77C0DAFF000EDF6E000174512E
:100B88001200FC0E1200000101019EC08AF1010151
:100B98008B6B000120EE88F000019C51D9260001E2
:100BA8009D51DA22DF5001018C6F01018C51110D2A
:100BB800F35000019C2501018D6FF45000019D2127
:100BC80001018E6F8DC1D9FF8EC1DAFFDF50D8B415
:100BD80002D0FF0E1200010120EE01F001018D513B
:100BE800D92601018E51DA2200019EC0DFFF0101E2
:100BF80020EE02F001018D51D92601018E51DA2231
:100C080000019FC0DFFF030E01018D250001926FD7
:100C1800000E01018E210001936F0001A1C095F023
:100C28000001A0C094F08AC196F08BC197F06DECDA
:100C38000AF0000120EE88F000019C51D92600013D
:100C48009D51DA22000110EE88F000019C51E12646
:100C580000019D51E222E7500001A26F0001A22984
:100C6800070BDF6E8DC1D9FF8EC1DAFF010EDF6E73
:100C7800010E120000016CC071F00001726B0001DE
:100C880020EE88F000016A51D92600016B51DA2262
:100C9800DF500001736F00017351110DF350000113
:100CA8006A250001746FF45000016B210001756F13
:100CB80074C0D9FF75C0DAFFDF50D8B402D0FF0E78
:100CC8001200000120EE01F000017451D926000144
:100CD8007551DA2200016CC0DFFF000120EE02F03E
:100CE80000017451D92600017551DA2200016DC046
:100CF800DFFF030E000174250001606F000E000184
:100D080075210001616F00016FC063F000016EC0C2
:100D180062F071C064F072C065F095EC0AF00001F1
:100D280020EE88F000016A51D92600016B51DA22C1
:100D3800000110EE88F000016A51E12600016B51B4
:100D4800E222E7500001706F00017029070BDF6E87
:100D580074C0D9FF75C0DAFF010EDF6E010E1200F4
:100D680003C0D9FF04C0DAFFFF0EDF6E20EE01F0EA
:100D78000350D9260450DA224AC0DFFF4A2A20EE5F
:100D880011F00350D9260450DA22FE0EDF6E000E51
:100D9800076E000E086E49D00850010DF35001246B
:100DA800D96EF4500220DA6EDF50FF0AD8B40BD0A7
:100DB8000850010DF3500124D96EF4500220DA6E68
:100DC800FE0EDF6210D00850056E066A020E052678
:100DD800000E062205500324D96E06500420DA6E50
:100DE800FD0EDF6E17D00850010DF3500124D96EA7
:100DF800F4500220DA6E0850056E066A020E0526C7
:100E0800000E062205500324E16E06500420E26E0F
:100E1800DFCFE7FF0850010DF3500124D96EF450DD
:100E28000220DA6EDF50071A082A0D0E0864B4D7BC
:100E380020EE10F00350D9260450DA2207C0DFFF55
:100E4800120020EE89F00B50D9260C50DA22DF5020
:100E5800146E1450110DF3500B24176EF4500C201F
:100E6800186E010E17C0D9FF18C0DAFFDF6250D024
:100E780020EE01F01750D9261850DA22DF500D5C09
:100E8800D8B002D0FD0E120020EE01F01750D9267E
:100E98001850DA22DF50126E1250156E166A11C001
:100EA80002F010C001F0030E1724126E000E182075
:100EB800136E12C003F013C004F015C005F016C07D
:100EC80006F0BDEC0AF020EE89F00B50D9260C5044
:100ED800DA2210EE89F00B50E1260C50E222E7509E
:100EE800126E1228070BDF6E20EE02F01750D9267B
:100EF8001850DA220EC0E1FF0FC0E2FFDFCFE7FF94
:100F080017C0D9FF18C0DAFF000EDF6E15501200A7
:100F1800FC0E12000DC012F0136A20EE88F00B5080
:100F2800D9260C50DA22DF50146E1450110DF350EC
:100F38000B24156EF4500C20166E15C0D9FF16C080
:100F4800DAFFDF50D8B402D0FF0E120020EE01F015
:100F58001550D9261650DA220DC0DFFF20EE02F018
:100F68001550D9261650DA220EC0DFFF030E1524BD
:100F7800016E000E1620026E10C004F00FC003F0C0
:100F880012C005F013C006F0BDEC0AF020EE88F0A0
:100F98000B50D9260C50DA2210EE88F00B50E126BF
:100FA8000C50E222E750116E1128070BDF6E15C0B6
:100FB800D9FF16C0DAFF010EDF6E010E12001F0EF8
:100FC8002C6E5150D8B43AD0000E1A6E2C0E196EF1
:100FD800000E1C6E1E0E1B6E0E0E55EC0CF02D6EC8
:100FE8002D50FC0AD8A402D09D9812002D50800ADA
:100FF8007F0FD8A01200000E026E1E0E016E0001B7
:10100800000E046E0001BA0E036EB4EC06F0000E7A
:10101800506E000E516E5050010D0001BA0EF324AF
:10102800D96E0001000EF420DA6EDF50AE6E502A41
:10103800110E50641200010E516E12005050010D35
:101048000001BA0EF324D96E0001000EF420DA6E06
:10105800DF50AE6E502A110E50641200010E516E10
:101068001200EACF87F0E1CF88F0E2CF89F0D9CF3C
:101078008AF0DACF8BF0F3CF8CF0F4CF8DF0F6CF87
:101088008EF0F7CF8FF0F8CF90F0F5CF91F09EA6C5
:1010980003D09E9662EC00F0F2A403D0F294B2EC76
:1010A80008F011EC0AF091C0F5FF90C0F8FF8FC06E
:1010B800F7FF8EC0F6FF8DC0F4FF8CC0F3FF8BC026
:1010C800DAFF8AC0D9FF89C0E2FF88C0E1FF87C084
:1010D800EAFF86C0E9FF85C0FBFF84C0FAFF110064
:1010E800000193C0CDF0000192C0CCF0000120EEC9
:1010F8000EF00001CC51D9260001CD51DA22000EA4
:10110800DF6E000120EE1FF00001CC51D92600014E
:10111800CD51DA22000EDF6E000120EE20F0000132
:10112800CC51D9260001CD51DA22000EDF6E000124
:1011380020EE21F00001CC51D9260001CD51DA2250
:10114800050EDF6E000120EE23F00001CC51D926F8
:101158000001CD51DA22000EDF6E1200000E0001F0
:10116800616F000E0001606FD5EC0CF00001000EFD
:101178000001796F00017F0E0001786F0001000EF9
:1011880000017B6F0001810E00017A6F020E95EC61
:101198000BF000017D6F00017E6B00017DBF7E07B3
:1011A80000017D51020A7E11D8A412000A0E000126
:1011B800766F0001000E0001786F0001810E0001BA
:1011C800776F020E28EC0CF0120025EC0DF08FC1A1
:1011D800D9FF90C1DAFFDE2A000EDD228FC1D9FFC8
:1011E80090C1DAFF0001DECF92F00001DDCF93F06D
:1011F800000E0001956F0A0E0001946FB1EC09F022
:1012080000019251090A00019311D8A41200140E8A
:101218000001A36F0101000190C1A5F001010001C7
:101228008FC1A4F0020E11EC0CF00101976F1200AF
:1012380004EE00F08A0EEE6AE806FDE103EE00F027
:101248008A0EEE6AE806FDE102EE00F08A0EEE6A0A
:10125800E806FDE101EE00F08A0EEE6AE806FDE11F
:1012680000EEA7F0250EEE6AE806FDE100EE4AF072
:10127800070EEE6AE806FDE14E0EF66E1A0EF76EE0
:10128800000EF86E0900F5CF51F0000EF86E00015F
:1012980035EF02F0000120EE88F000019251D926C6
:1012A80000019351DA22000EDF6E000120EE89F072
:1012B80000019251D92600019351DA22000EDF6E07
:1012C800000E0001946F070E0001946501D0120012
:1012D80000019451110DF35000019225D96EF4507C
:1012E80000019321DA6E000EDF6E0001942B070EC9
:1012F80000019465EDD7120059EC0BF000019751ED
:1013080000019611D8B41200010E0001B96F020154
:10131800020E0001936F0201000E0001926FB0EC03
:101328000BF00009D8B404D0000E0001B96F120008
:101338000101010E0001936F0101000E0001926F7F
:10134800B0EC0BF00009D8B404D0000E0001B96F5E
:1013580012000A0EB0EC0CF0DAD700019551941186
:10136800D8B426D0010E0001966F06D00001D8909F
:10137800943795370001962B000195AFF7D70001F8
:1013880094510001925D0001955100019359D8A034
:1013980008D0000194510001925F000195510001AD
:1013A800935B0001D890953394330001962FE7D7CB
:1013B80092C092F093C093F012000001926FC65051
:1013C800F00B0809C66EC78EC79C770EC86E938847
:1013D800938A000120EE25F00001CC51D9260001A6
:1013E800CD51DA22000192C0DFFF000120EE1FF08C
:1013F8000001CC51D9260001CD51DA220E0EDF6E44
:10140800000120EE21F00001CC51D9260001CD5178
:10141800DA22050EDF6EC68A12000001B96701D014
:1014280012003AEC0BF00001635100016211D8A4DC
:101438001200E6EC0CF00001615100016011D8B413
:1014480012000201020E0001616F0201000E00018C
:10145800606FC9EC0BF00009D8A412000101010E5D
:101468000001616F0101000E0001606FC9EC0BF013
:101478000009D8B422EC0DF01200000E0001B96F7B
:101488000101010E0001936F0101000E0001926F2E
:101498004EEC09F00201020E0001936F0201000EEA
:1014A8000001926F4EEC09F00301030E0001936FE7
:1014B8000301000E0001926F4EEC09F00401040EC6
:1014C8000001936F0401000E0001926F4EEC09F0C9
:1014D8001200000195C09BF0000194C09AF0000131
:1014E80093C099F0000192C098F010D09AC0D9FF2B
:1014F8009BC0DAFF98C0E1FF99C0E2FFDFCFE7FFAA
:1015080000019A4B9B2B0001984B992B00019607E1
:10151800D8A0970700019629D8B49729D8B4120003
:10152800E5D7000163C069F0000162C068F00001FE
:1015380061C067F0000160C066F010D068C0D9FFD4
:1015480069C0DAFF66C0E1FF67C0E2FFDFCFE7FFEF
:101558000001684B692B0001664B672B000164078B
:10156800D8A0650700016429D8B46529D8B4120049
:10157800E5D704C00AF003C009F002C008F001C0B2
:1015880007F00ED009C0D9FF0AC0DAFF07C0E1FF93
:1015980008C0E2FFDFCFE7FF094A0A2A074A082AFC
:1015A8000506D8A006060528D8B40628D8B412001F
:1015B800E9D7F2AC07D0000E0001956F000E0001CC
:1015C800946F1200DEEC0CF00001935100019211AF
:1015D800D8B407D0000E0001956F000E0001946F7B
:1015E8001200000E0001956F010E0001946F1200A9
:1015F8000001A56F0101010E00019D6F0101000EA0
:1016080000019C6FA5C09EF00101000190C1A0F0EF
:10161800010100018FC19FF00101000192C1A2F0F8
:101628000101000191C1A1F0A9EC04F01200000130
:10163800A56F0201020E00019D6F0201000E00015C
:101648009C6FA5C09EF00101000190C1A0F00101AE
:1016580000018FC19FF00101000192C1A2F00101B8
:10166800000191C1A1F0A9EC04F01200F2AC07D07E
:10167800000E0001636F000E0001626F1200E6ECBD
:101688000CF00001615100016011D8B407D0000EC0
:101698000001636F000E0001626F1200000E00016E
:1016A800636F010E0001626F1200DDEC0AF00001A9
:1016B800955100019411D8A40FD0DEEC0CF0000174
:1016C800935100019211D8A407D0000E0001976F22
:1016D800010E0001966F1200000E0001976F000EB8
:1016E8000001966F12000001946F00019251F30BF4
:1016F8009A6E94C093F07F0E000193170001D89062
:101708009335CD6E000ECF6E000ECE6E9E9000010A
:1017180094AF02D09D8001D09D909ABE9A86CD80CC
:10172800120000017C6F0401040E00016B6F0401BC
:10173800000E00016A6F7CC06CF0000179C06EF089
:10174800000178C06DF000017BC070F000017AC024
:101758006FF038EC05F01200000120EE89F000016E
:101768009251D92600019351DA22DF500001946F7B
:1017780000019451110DF35000019225D96EF450D7
:1017880000019321DA6EDF501200000120EE89F08B
:1017980000016051D92600016151DA22DF500001B1
:1017A800626F00016251110DF35000016025D96E7E
:1017B800F45000016121DA6EDF5012000101926FCE
:1017C800280E0001A36F0101000190C1A5F00101DD
:1017D80000018FC1A4F00101925111EC0CF001013C
:1017E800916F01019129D8A49E8612000001A66F6D
:1017F8000301030E00019D6F0301000E00019C6FA1
:10180800A6C09EF0A3C09FF00001A5C0A1F00001F2
:10181800A4C0A0F0C7EC05F012000001A66F0401F7
:10182800040E00019D6F0401000E00019C6FA6C00C
:101838009EF0A3C09FF00001A5C0A1F00001A4C0C4
:10184800A0F0C7EC05F012000001796F0201020E4A
:1018580000016B6F0201000E00016A6F79C06CF025
:1018680076C06DF0000178C06FF0000177C06EF0AF
:101878003EEC06F01200CCEC0CF001C01BF002C0EC
:101888001CF00B0E176E000E196E000E186E000E6F
:101898008EEC0CF0000E026E000E016EC3EC0CF024
:1018A80012001D6E0301030E0C6E0301000E0B6E79
:1018B8001DC00DF01AC00FF019C00EF01CC011F0B9
:1018C8001BC010F025EC07F012000001926F000118
:1018D80092517F0BD56E000ED76E000ED66EF29425
:1018E800000192AF02D0F28A01D0F29AD58E12008E
:1018F8001F0E0001A36F0101000190C1A5F00101B5
:1019080000018FC1A4F00E0EFAEC0BF00101916FEB
:101918009D8812001A6E0101010E0C6E0101000E65
:101928000B6E1AC00DF017C00EF019C010F018C0D9
:101938000FF08EEC07F01200948E949C7E86AD8496
:10194800000E7F6ECF0EB06EAD98AC8E9F989D98AE
:101958009D8AAD8AAC8812000001926FFA0E00F0E1
:10196800E82EFDD70001922FF9D7120092C0D9FFB7
:1019780093C0DAFF000EDE6E000EDD6E120001C0AD
:1019880003F002C004F004C0CFFF03C0CEFF120072
:10199800CECF03F0CFCF04F003C001F004C002F0B3
:1019A800120060C062F061C063F063C0D7FF62C01C
:1019B800D6FF1200000EF2AE010E0001926F000178
:1019C800936B1200000EF2AE010E0001606F000171
:1019D800616B1200000199C09BF0000198C09AF059
:1019E8001200000E956E939093921200D08EF28E94
:1019F800F28C12008C9E8C8E8C9E12008C9C8C8C8F
:101A08008C9C12008C9A8C8A8C9A12008C988C88E8
:101A18008C9812008C948C848C9412008C9C8C8CE6
:101A28008C9C12008C9A8C8A8C9A12008C988C88C8
:101A38008C9812008C948C848C941200D38E0300A2
:081A480012008A701200010077
:08FFF8008AF795FFF2F9FFF111
:00000001FF
