:0400000067EF00F0B6
:10000800FACF84F0FBCF85F0E9CF86F0B7EF09F09F
:10001800D8CF39F0E8CF3AF0E0CF3BF0FACF3CF058
:10002800FBCF3DF0E9CF3EF0EACF3FF0E1CF40F023
:10003800E2CF41F0D9CF42F0DACF43F0F3CF44F02A
:10004800F4CF45F0F6CF46F0F7CF47F0F8CF48F0B9
:10005800F5CF49F09EA005D09E9066EC0EF08EEC90
:100068000DF0A1A203D0A192000E7A6E9EAA03D031
:100078009E9AA0EC04F09EB89DA802D065EC09F009
:1000880049C0F5FF48C0F8FF47C0F7FF46C0F6FF74
:1000980045C0F4FF44C0F3FF43C0DAFF42C0D9FFB4
:1000A80041C0E2FF40C0E1FF3FC0EAFF3EC0E9FFB8
:1000B8003DC0FBFF3CC0FAFF3BC0E0FF3AC0E8FF91
:1000C80039C0D8FF10006BEF0AF0000E01016F6F06
:1000D800E00ED36E9B8C0101010E0001936F0101AC
:1000E800730E0001926FF6EC09F00101010E000198
:1000F800936F0101610E0001926FFFEC0DF090EC1F
:100108000BF0000E936E000E8A6E960EB8EC0DF092
:10011800000E0001926F9B0EC6EC0CF09F90A2920D
:100128009F9A9F86000E30EC0BF09D8649EC0EF0EE
:1001380062EC0EF05EEC0EF05AEC0EF056EC0EF09F
:1001480052EC0EF04EEC0EF0EFEC0DF0050E010146
:10015800216F010E0101726F0FD001017251010D63
:100168000101210EF324D96E0101010EF420DA6E8B
:10017800000EDF6E0101722B0D0E01017265EDD7C5
:10018800070E01012F6F010E0101726F0FD00101DF
:100198007251010D01012F0EF324D96E0101010ED8
:1001A800F420DA6E000EDF6E0101722B0D0E0101D4
:1001B8007265EDD7CFEC0AF00101010E0101066F5F
:1001C8000101600E0101056F0101010E0101086FB7
:1001D8000101400E0101076F0E0E6AEC0CF00101DF
:1001E8005F6F01015FBF94D087D00101010E00014C
:1001F800936F01013E0E0001926F0101000160C181
:1002080094F00001956B01015F510001966F0001A8
:10021800976B000196BF97070101010E0001996FC6
:100228000101400E0001986F42EC0EF071D0020EF1
:100238000101726F1AD001017251010D0101400EC6
:10024800F324D96E0101010EF420DA6E0101725116
:10025800010D0101210EF324E16E0101010EF420CC
:10026800E26EDFCFE7FF0101722B0B0E0101726511
:10027800E2D70101010E0101076F0101210E010101
:10028800066FCBEC0DF035D0020E0101726F1AD05B
:1002980001017251010D0101400EF324D96E0101D3
:1002A800010EF420DA6E01017251010D01012F0EC9
:1002B800F324E16E0101010EF420E26EDFCFE7FFC7
:1002C8000101722B0B0E01017265E2D70101010ECB
:1002D8000101076F01012F0E0101066FCBEC0DF034
:1002E80008D001014051050AD8B4A1D7020AD8B4F0
:1002F800CBD740C13DF10CD0010160510A0AD8B4F6
:1003080074D7220AD8B4EDD7010AD8B4F2D7030AB1
:100318000101010E0101066F0101600E0101056F67
:100328000101010E0101086F0101400E0101076F73
:100338000E0E4BEC0CF001015F6F01015FBF3AD765
:10034800000E01015E6F000E01015D6F01015E513B
:10035800800A800F0E0ED8B45D5DD8B0D1D00101EF
:100368004F0E01015D25D96E0101010E01015E21CB
:10037800DA6E000EDF6E01015D4B5E2BE7D70101DF
:10038800010E01010B6F0101610E01010A6F0101EC
:1003980060C10CF101010D6B01015F5101010E6F8C
:1003A80001010F6B01010EBF0F070101010E0101D1
:1003B800116F0101400E0101106F78EC05F0FAD6BB
:1003C800F10E01014F6F40C150F10101010E010111
:1003D800076F01014F0E0101066FCBEC0DF0EAD655
:1003E800F20E01014F6F40C150F141C151F10101BD
:1003F800010E0101076F01014F0E0101066FCBECE1
:100408000DF0D8D6F30E01014F6F40C150F1010134
:10041800010E0101076F01014F0E0101066FCBECC0
:100428000DF0C8D6F40E01014F6F40C150F1010123
:10043800010E0101076F01014F0E0101066FCBECA0
:100448000DF0B8D6110E01014F6F40C150F10101F6
:10045800010E0101076F01014F0E0101066FCBEC80
:100468000DF0A8D60101010E0101076F0101210E4F
:100478000101066FCBEC0DF09DD60101010E0101C3
:10048800076F01012F0E0101066FCBEC0DF0000E76
:100498000101306F8FD6000E0101726F1AD0010171
:1004A8007251010D0101400EF324D96E0101010EB4
:1004B800F420DA6E01017251010D0101610EF3247D
:1004C800E16E0101010EF420E26EDFCFE7FF0101CA
:1004D800722B0D0E01017265E2D7010E01016F6FDB
:1004E80069D601014051010AD8B4D5D7030AD8B456
:1004F80061D6060AD8B4B6D7020AD8B4BED75AD637
:10050800010160510B0AD8B43AD7150AD8B458D7A4
:10051800010AD8B4E6D73F0AD8B452D7010AD8B4EA
:100528005FD7030AD8B46ED7010AD8B47BD7070AB5
:10053800D8B488D73FD68C9E8C8E280E0001826F47
:10054800010E0001816FD3D10001000E0001796F07
:100558000001820E0001786F100E0001CC25000109
:100568007A6F000E0001CD2100017B6F0E0EE4ECC6
:100578000CF00001836F00018351FC0AD8B4D9D173
:1005880000018351FD0AD8B4D4D1000120EE1EF039
:100598000001CC51D9260001CD51DA22000EDF6EC0
:1005A800000120EE0FF00001CC51D9260001CD51F9
:1005B800DA22000EDF6E000120EE1FF00001CC51A0
:1005C800D9260001CD51DA22000183C0DFFFC580A2
:1005D800000120EE21F00001CC51D9260001CD51B7
:1005E800DA22060E03D0C7B603D0EAD0DF6EA1D157
:1005F800C7A023D0E5D0000120EE25F00001CC51A2
:10060800D9260001CD51DA229C0E15D0000120EE2A
:1006180025F00001CC51D9260001CD51DA229E0ED9
:100628000AD0000120EE25F00001CC51D9260001A6
:10063800CD51DA22000EDF6E14D0000120EE10F04A
:100648000001CC51D9260001CD51DA22DF50010A30
:10065800D8B4D1D7050AD8B4D9D7020AD8B4CBD7D9
:10066800E0D7000120EE25F00001CC51D926000189
:10067800CD51DA22DF50C96E000120EE21F00001D1
:10068800CC51D9260001CD51DA220A0EDF6E0001C5
:1006980020EE1EF063D0C7B04CD1000120EE1EF052
:1006A8000001CC51D9260001CD51DA22DF500001DA
:1006B8007D6F00017D51010D100EF326000EF4220E
:1006C800F3500001CC25D96EF4500001CD21DA6E2B
:1006D800DF50C96E000120EE1EF00001CC51D92672
:1006E8000001CD51DA22DF2A000120EE1EF00001C0
:1006F800CC51D9260001CD51DA220D0EDF6419D173
:10070800000120EE10F00001CC51D9260001CD5196
:10071800DA22DF500001806F06D0010E01D0000EF2
:100728000001816F09D000018051040AD8B4F5D7BF
:10073800020AD8B4F2D7F3D700018151D8B416D041
:10074800000120EE21F00001CC51D9260001CD5145
:10075800DA220C0EDF6E000120EE0FF00001CC5102
:10076800D9260001CD51DA22000E40D7000120EE33
:1007780021F00001CC51D9260001CD51DA220B0E0F
:1007880035D7C582000120EE21F00001CC51D926D1
:100798000001CD51DA220D0E29D7C7B6C7B010D047
:1007A800000120EE25F00001CC51D9260001CD51E1
:1007B800DA22DF500109C96E82D0C5AC0CD08AD0CC
:1007C800000120EE21F00001CC51D9260001CD51C5
:1007D800DA22050E0BD7C586000120EE1EF00001B7
:1007E800CC51D9260001CD51DA22000EDF6E00016E
:1007F80020EE21F00001CC51D9260001CD51DA229A
:10080800080EF4D6C7A095D0000120EE0FF0000125
:10081800CC51D9260001CD51DA22DF5000017D6F7D
:1008280000017D51010DF3500001CC25D96EF45023
:100838000001CD21DA6EC9CFDFFF000120EE0FF0F5
:100848000001CC51D9260001CD51DA22DF2A00015E
:1008580020EE0FF00001CC51D9260001CD51DA224B
:100868000D0EDF640FD0280E0001766F0001CDC099
:1008780078F00001CCC077F00E0E77EC0DF0000197
:100888007E6F10D0C7A81AD0280E0001766F00011D
:10089800CDC078F00001CCC077F00E0E77EC0DF0EB
:1008A80000017F6F000120EE21F00001CC51D92614
:1008B8000001CD51DA220B0EDF6E0CD0C588000185
:1008C80020EE21F00001CC51D9260001CD51DA22C9
:1008D8000E0E8CD6C584000120EE1EF00001CC510E
:1008E800D9260001CD51DA22000EDF6E69D700014A
:1008F80020EE21F00001CC51D9260001CD51DA2299
:10090800DF50050AD8B420D6030AD8B46CD60E0A2C
:10091800D8B478D7020AD8B4BED6010AD8B4DAD780
:10092800070AD8B42ED7010AD8B437D7030AD8B4DF
:1009380044D78C8E8C9E12004B663FD04D50010DD3
:100948000001A60EF324D96E0001000EF420DA6E21
:10095800AFCFDFFF4D6619D00001A629D8B412D059
:100968004F660DD0010E4F6E4EC032F0220E176E3C
:10097800000E196E320E186E010EDDEC0DF0000E31
:100988004D6E1200000E4F6E17D0100E4D6414D02D
:100998000001B751FE0AD8B40FD0000E4D6E4EC0FC
:1009A80033F0230E176E000E196E330E186E010EFB
:1009B800DDEC0DF0010E4C6E4D2A110E4D64120047
:1009C8006EEC0EF0000E4D6E0001A7514E18D8B413
:1009D80011D04EC030F0A7C031F0210E176E000EB6
:1009E800196E300E186E020EDDEC0DF0A7C04EF039
:1009F800010E4C6E000E356E000E386E000E376E0E
:100A08003850800A800F0E0ED8B4375CD8B021D089
:100A1800020E37241B6E000E38201C6E0001A60E35
:100A28001B24D96E0001000E1C20DA6E1D0E37241F
:100A3800E16E000E3820E26EDFCFE7FF1D0E37248F
:100A4800D96E000E3820DA6EDF50351A374A382A48
:100A5800D7D70001B6513518D8B411D04EC02DF0F3
:100A6800B6C02EF035C02FF0200E176E000E196E8E
:100A78002D0E186E030EDDEC0DF0010E4C6E4C665B
:100A88002DD01DC036F03650110AD8B41CD03650BF
:100A9800F10AD8B418D03650F20AD8B414D0365067
:100AA800F30AD8B410D03650F40AD8B40CD04EC0DB
:100AB80034F0240E176E000E196E340E186E010EE7
:100AC800DDEC0DF02B6E1F0E176E000E196E1D0E4D
:100AD800186E0E0EDDEC0DF02C6E02D06AEC0EF0E6
:100AE8004E2A000E4C6E120075EC0EF0040E010139
:100AF800126F0101010E0101076F0101120E0101C0
:100B0800066F0E0E31EC0DF0010120EE0EF0010122
:100B18000A51D92601010B51DA22DF50D8B417D077
:100B2800010120EE0EF001010A51D92601010B51F5
:100B3800DA22000EDF6E010120EE04F001010A51F5
:100B4800D92601010B51DA22DF500001B96F0001EB
:100B5800B951D8B40CD001010BC107F101010AC188
:100B680006F10E0E31EC0DF00001B90725D00AC1CF
:100B7800D9FF0BC1DAFF010EDF6E010120EE01F093
:100B880001010A51D92601010B51DA22000EDF6E4C
:100B9800010120EE02F001010A51D92601010B5191
:100BA800DA22000EDF6E01010BC107F101010AC153
:100BB80006F10E0E31EC0DF0060E0101126F010167
:100BC800010E0101076F0101120E0101066F0E0EE1
:100BD80031EC0DF0010120EE0FF001010A51D92688
:100BE80001010B51DA22DE2A000EDD22010120EE7E
:100BF8000FF001010A51D92601010B51DA22000137
:100C0800DECF92F00001DDCF93F0000E0001956F6A
:100C18000A0E0001946F00EC0BF000019251090AD2
:100C280000019311D8A41200140E0001A36F0F0E37
:100C380001010A250001A46F000E01010B2100012A
:100C4800A56F020E49EC0DF00101206F12000001A2
:100C580020EE89F000019C51D92600019D51DA222D
:100C6800DF500101006F01010051110DF350000127
:100C78009C250101036FF45000019D210101046FBF
:100C8800010E03C1D9FF04C1DAFFDF626DD0010193
:100C980020EE01F001010351D92601010451DA22A5
:100CA800DF5000019E5DD8B002D0FD0E1200010198
:100CB80020EE01F001010351D92601010451DA2285
:100CC800DF500001A36F0001A3510101016F010171
:100CD800026B0001A2C093F00001A1C092F0030EC4
:100CE800010103250001A36F000E01010421000189
:100CF800A46FA3C094F0A4C095F001C196F002C1FE
:100D080097F0BCEC0BF0000120EE89F000019C513B
:100D1800D92600019D51DA22000110EE89F0000168
:100D28009C51E12600019D51E222E7500001A36F8A
:100D38000001A329070BDF6E010120EE02F001017B
:100D48000351D92601010451DA229FC0E1FFA0C056
:100D5800E2FFDFCFE7FF03C1D9FF04C1DAFF000ECE
:100D6800DF6E010101511200FC0E1200000120EE9D
:100D780089F000016A51D92600016B51DA22DF504F
:100D88000001736F00017351110DF35000016A25C2
:100D98000001766FF45000016B210001776F010E9E
:100DA80076C0D9FF77C0DAFFDF626DD0000120EE90
:100DB80001F000017651D92600017751DA22DF507F
:100DC80000016C5DD8B002D0FD0E1200000120EECB
:100DD80001F000017651D92600017751DA22DF505F
:100DE8000001716F000171510001746F0001756B92
:100DF800000170C061F000016FC060F0030E0001D7
:100E080076250001716F000E000177210001726FD5
:100E180071C062F072C063F074C064F075C065F0B0
:100E2800E4EC0BF0000120EE89F000016A51D926AC
:100E380000016B51DA22000110EE89F000016A51BD
:100E4800E12600016B51E222E7500001716F0001B9
:100E58007129070BDF6E000120EE02F000017651C8
:100E6800D92600017751DA226DC0E1FF6EC0E2FF9A
:100E7800DFCFE7FF76C0D9FF77C0DAFF000EDF6E5D
:100E8800000174511200FC0E1200000101019EC005
:100E980000F10101016B000120EE88F000019C5176
:100EA800D92600019D51DA22DF500101026F0101AC
:100EB8000251110DF35000019C250101036FF450FC
:100EC80000019D210101046F03C1D9FF04C1DAFFAC
:100ED800DF50D8B402D0FF0E1200010120EE01F05D
:100EE80001010351D92601010451DA2200019EC0F3
:100EF800DFFF010120EE02F001010351D9260101B3
:100F08000451DA2200019FC0DFFF030E010103250F
:100F18000001926F000E010104210001936F00018E
:100F2800A1C095F00001A0C094F000C196F001C1E5
:100F380097F0BCEC0BF0000120EE88F000019C510A
:100F4800D92600019D51DA22000110EE88F0000137
:100F58009C51E12600019D51E222E7500001A26F59
:100F68000001A229070BDF6E03C1D9FF04C1DAFF14
:100F7800010EDF6E010E120000016CC071F000015D
:100F8800726B000120EE88F000016A51D926000139
:100F98006B51DA22DF500001736F00017351110D9C
:100FA800F35000016A250001746FF45000016B21B1
:100FB8000001756F74C0D9FF75C0DAFFDF50D8B46F
:100FC80002D0FF0E1200000120EE01F00001745162
:100FD800D92600017551DA2200016CC0DFFF00013B
:100FE80020EE02F000017451D92600017551DA2271
:100FF80000016DC0DFFF030E000174250001606F62
:10100800000E000175210001616F00016FC063F0DF
:1010180000016EC062F071C064F072C065F0E4EC6B
:101028000BF0000120EE88F000016A51D92600017A
:101038006B51DA22000110EE88F000016A51E126B6
:1010480000016B51E222E7500001706F0001702926
:10105800070BDF6E74C0D9FF75C0DAFF010EDF6EB3
:10106800010E120003C0D9FF04C0DAFFFF0EDF6EC5
:1010780020EE01F00350D9260450DA224AC0DFFFDF
:101088004A2A20EE11F00350D9260450DA22FE0E27
:10109800DF6E000E076E000E086E49D00850010D75
:1010A800F3500124D96EF4500220DA6EDF50FF0AA3
:1010B800D8B40BD00850010DF3500124D96EF45068
:1010C8000220DA6EFE0EDF6210D00850056E066A46
:1010D800020E0526000E062205500324D96E06507E
:1010E8000420DA6EFD0EDF6E17D00850010DF350A4
:1010F8000124D96EF4500220DA6E0850056E066A93
:10110800020E0526000E062205500324E16E065045
:101118000420E26EDFCFE7FF0850010DF3500124F1
:10112800D96EF4500220DA6EDF50071A082A0D0E25
:101138000864B4D720EE10F00350D9260450DA2200
:1011480007C0DFFF120020EE89F00B50D9260C50A3
:10115800DA22DF50146E1450110DF3500B24176E61
:10116800F4500C20186E010E17C0D9FF18C0DAFF12
:10117800DF6250D020EE01F01750D9261850DA223D
:10118800DF500D5CD8B002D0FD0E120020EE01F049
:101198001750D9261850DA22DF50126E1250156EE9
:1011A800166A11C002F010C001F0030E1724126E67
:1011B800000E1820136E12C003F013C004F015C0FF
:1011C80005F016C006F00CEC0CF020EE89F00B5080
:1011D800D9260C50DA2210EE89F00B50E1260C507B
:1011E800E222E750126E1228070BDF6E20EE02F0A3
:1011F8001750D9261850DA220EC0E1FF0FC0E2FFBF
:10120800DFCFE7FF17C0D9FF18C0DAFF000EDF6E87
:1012180015501200FC0E12000DC012F0136A20EED9
:1012280088F00B50D9260C50DA22DF50146E145077
:10123800110DF3500B24156EF4500C20166E15C0CA
:10124800D9FF16C0DAFFDF50D8B402D0FF0E120063
:1012580020EE01F01550D9261650DA220DC0DFFF16
:1012680020EE02F01550D9261650DA220EC0DFFF04
:10127800030E1524016E000E1620026E10C004F035
:101288000FC003F012C005F013C006F00CEC0CF010
:1012980020EE88F00B50D9260C50DA2210EE88F098
:1012A8000B50E1260C50E222E750116E1128070B73
:1012B800DF6E15C0D9FF16C0DAFF010EDF6E010E12
:1012C80012001F0E2C6E5150D8B43AD0000E1A6E70
:1012D8002C0E196E000E1C6E1E0E1B6E0E0EA4EC4C
:1012E8000DF02D6E2D50FC0AD8A402D09D98120046
:1012F8002D50800A7F0FD8A01200000E026E1E0E1D
:10130800016E0001000E046E0001BA0E036E36EC89
:1013180008F0000E506E000E516E5050010D000185
:10132800BA0EF324D96E0001000EF420DA6EDF50F5
:10133800AE6E502A110E50641200010E516E12004A
:101348005050010D0001BA0EF324D96E0001000EB1
:10135800F420DA6EDF50AE6E502A110E506412007F
:10136800010E516E1200EACF87F0E1CF88F0E2CF8C
:1013780089F0D9CF8AF0DACF8BF0F3CF8CF0F4CFA5
:101388008DF0F6CF8EF0F7CF8FF0F8CF90F0F5CF45
:1013980091F09EA603D09E969FEC02F0F2A403D093
:1013A800F29434EC0AF060EC0BF091C0F5FF90C0B9
:1013B800F8FF8FC0F7FF8EC0F6FF8DC0F4FF8CC01A
:1013C800F3FF8BC0DAFF8AC0D9FF89C0E2FF88C06B
:1013D800E1FF87C0EAFF86C0E9FF85C0FBFF84C044
:1013E800FAFF1100000193C0CDF0000192C0CCF0CB
:1013F800000120EE0EF00001CC51D9260001CD519C
:10140800DA22000EDF6E000120EE1FF00001CC5141
:10141800D9260001CD51DA22000EDF6E000120EE40
:1014280020F00001CC51D9260001CD51DA22000E5E
:10143800DF6E000120EE21F00001CC51D926000119
:10144800CD51DA22050EDF6E000120EE23F00001F7
:10145800CC51D9260001CD51DA22000EDF6E1200E0
:10146800000E0001616F000E0001606F29EC0EF0A4
:101478000001000E0001796F00017F0E0001786FF6
:101488000001000E00017B6F0001810E00017A6FE0
:10149800020EE4EC0CF000017D6F00017E6B000190
:1014A8007DBF7E0700017D51020A7E11D8A412007B
:1014B8000A0E0001766F0001000E0001786F00012E
:1014C800810E0001776F020E77EC0DF0120005EE29
:1014D80000F08A0EEE6AE806FDE104EE00F08A0EDE
:1014E800EE6AE806FDE103EE00F08A0EEE6AE80611
:1014F800FDE102EE00F08A0EEE6AE806FDE100EE7C
:10150800A6F0260EEE6AE806FDE100EE4AF0070EA8
:10151800EE6AE806FDE1EE0EF66E1C0EF76E000EA2
:10152800F86E0900F5CF51F0000EF86E000169EF72
:1015380000F0000120EE88F000019251D926000148
:101548009351DA22000EDF6E000120EE89F00001CF
:101558009251D92600019351DA22000EDF6E000E57
:101568000001946F070E0001946501D0120000017C
:101578009451110DF35000019225D96EF4500001D9
:101588009321DA6E000EDF6E0001942B070E000126
:101598009465EDD71200A8EC0CF0000197510001FA
:1015A8009611D8B41200010E0001B86F0301030EA2
:1015B8000001936F0301000E0001926FFFEC0CF025
:1015C8000009D8B404D0000E0001B86F120002015F
:1015D800020E0001936F0201000E0001926FFFECF2
:1015E8000CF00009D8B404D0000E0001B86F120046
:1015F8000A0E0DEC0EF0DAD7000195519411D8B40B
:1016080026D0010E0001966F06D00001D8909437BD
:1016180095370001962B000195AFF7D7000194513B
:101628000001925D0001955100019359D8A008D09E
:10163800000194510001925F000195510001935BF4
:101648000001D890953394330001962FE7D792C0C4
:1016580092F093C093F012000001926FC650F00B05
:101668000809C66EC78EC79C770EC86E9388938A82
:10167800000120EE25F00001CC51D9260001CD5102
:10168800DA22000192C0DFFF000120EE1FF0000106
:10169800CC51D9260001CD51DA220E0EDF6E0001A1
:1016A80020EE21F00001CC51D9260001CD51DA22DB
:1016B800050EDF6EC68A12000001B86701D012005D
:1016C80089EC0CF00001635100016211D8A41200EA
:1016D8003AEC0EF00001615100016011D8B412001B
:1016E8000301030E0001616F0301000E0001606F2A
:1016F80018EC0DF00009D8A412000201020E000136
:10170800616F0201000E0001606F18EC0DF0000916
:10171800D8B472EC0EF01200000E0001B86F02018E
:10172800020E0001936F0201000E0001926F9DEC02
:101738000AF00301030E0001936F0301000E00017C
:10174800926F9DEC0AF00401040E0001936F0401EE
:10175800000E0001926F9DEC0AF00501050E0001D4
:10176800936F0501000E0001926F9DEC0AF01200C4
:10177800000195C09BF0000194C09AF0000193C04D
:1017880099F0000192C098F010D09AC0D9FF9BC080
:10179800DAFF98C0E1FF99C0E2FFDFCFE7FF000161
:1017A8009A4B9B2B0001984B992B00019607D8A0C8
:1017B800970700019629D8B49729D8B41200E5D71D
:1017C800000163C069F0000162C068F0000161C0F7
:1017D80067F0000160C066F010D068C0D9FF69C02A
:1017E800DAFF66C0E1FF67C0E2FFDFCFE7FF000175
:1017F800684B692B0001664B672B00016407D8A072
:10180800650700016429D8B46529D8B41200E5D762
:1018180004C00AF003C009F002C008F001C007F0D4
:101828000ED009C0D9FF0AC0DAFF07C0E1FF08C01F
:10183800E2FFDFCFE7FF094A0A2A074A082A050616
:10184800D8A006060528D8B40628D8B41200E9D7C7
:10185800F2AC07D0000E0001956F000E0001946FE6
:10186800120032EC0EF00001935100019211D8B42D
:1018780007D0000E0001956F000E0001946F120052
:10188800000E0001956F010E0001946F1200000117
:10189800A56F0201020E00019D6F0201000E0001FA
:1018A8009C6FA5C09EF00101000106C1A0F00101D6
:1018B800000105C19FF00101000108C1A2F001016A
:1018C800000107C1A1F02BEC06F012000001A56F82
:1018D8000301030E00019D6F0301000E00019C6FC0
:1018E800A5C09EF00101000106C1A0F001010001A0
:1018F80005C19FF00101000108C1A2F0010100012A
:1019080007C1A1F02BEC06F01200F2AC07D0000ED4
:101918000001636F000E0001626F12003AEC0EF0D6
:101928000001615100016011D8B407D0000E000118
:10193800636F000E0001626F1200000E0001636FFA
:10194800010E0001626F12002CEC0CF000019551A1
:1019580000019411D8A40FD032EC0EF0000193517D
:1019680000019211D8A407D0000E0001976F010E54
:101978000001966F1200000E0001976F000E000123
:10198800966F12000001946F00019251F30B9A6E4A
:1019980094C093F07F0E000193170001D8909335FF
:1019A800CD6E000ECF6E000ECE6E9E90000194AFED
:1019B80002D09D8001D09D909ABE9A86CD8012005B
:1019C80000017C6F0501050E00016B6F0501000E1B
:1019D80000016A6F7CC06CF0000179C06EF00001F4
:1019E80078C06DF000017BC070F000017AC06FF024
:1019F800BAEC06F01200000120EE89F000019251C5
:101A0800D92600019351DA22DF500001946F0001BA
:101A18009451110DF35000019225D96EF450000134
:101A28009321DA6EDF501200000120EE89F00001E8
:101A38006051D92600016151DA22DF500001626F3E
:101A480000016251110DF35000016025D96EF45068
:101A580000016121DA6EDF5012000101096F280EC2
:101A68000001A36F0101000107C1A5F001010001F8
:101A780006C1A4F00101095149EC0DF00101086FFC
:101A880001010829D8A49E8612000101056F0501ED
:101A9800050E00019D6F0501000E00019C6F05C138
:101AA8009EF0A3C09FF00001A5C0A1F00001A4C052
:101AB800A0F049EC07F012000101056F0401040EC3
:101AC80000019D6F0401000E00019C6F05C19EF08E
:101AD800A3C09FF00001A5C0A1F00001A4C0A0F020
:101AE80049EC07F012000001796F0301030E0001B1
:101AF8006B6F0301000E00016A6F79C06CF076C04D
:101B08006DF0000178C06FF0000177C06EF0C0EC96
:101B180007F0120020EC0EF001C01BF002C01CF010
:101B28000B0E176E000E196E000E186E000EDDEC0F
:101B38000DF0000E026E000E016E17EC0EF0120092
:101B48001D6E0401040E0C6E0401000E0B6E1DC008
:101B58000DF01AC00FF019C00EF01CC011F01BC018
:101B680010F0A7EC08F012000001926F00019251EA
:101B78007F0BD56E000ED76E000ED66EF294000164
:101B880092AF02D0F28A01D0F29AD58E12001F0EBF
:101B98000001A36F0101000107C1A5F001010001C7
:101BA80006C1A4F00E0E60EC0DF00101086F9D88CF
:101BB80012001A6E0201020E0C6E0201000E0B6E6C
:101BC8001AC00DF017C00EF019C010F018C00FF0B1
:101BD80010EC09F01200948E949C7E86AD84000E61
:101BE8007F6ECF0EB06EAD98AC8E9F989D989D8AF3
:101BF800AD8AAC881200000120EE0FF0000192516E
:101C0800D92600019351DA22000EDE6E000EDD6E39
:101C180012000001926FFA0E00F0E82EFDD70001C5
:101C2800922FF9D7120001C003F002C004F004C0DB
:101C3800CFFF03C0CEFF1200CECF03F0CFCF04F00A
:101C480003C001F004C002F0120060C062F061C07D
:101C580063F063C0D7FF62C0D6FF1200000EF2AE79
:101C6800010E0001926F0001936B1200000EF2AE9C
:101C7800010E0001606F0001616B1200000199C044
:101C88009BF0000198C09AF01200000E956E939098
:101C980093921200D08EF28EF28C12008C9E8C8E53
:101CA8008C9E12008C9C8C8C8C9C12008C9A8C8A3A
:101CB8008C9A12008C988C888C9812008C948C8446
:101CC8008C9412008C988C888C9812008C9C8C8C2C
:101CD8008C9C12008C9A8C8A8C9A1200D38E0300EA
:081CE80012008A7012000100D5
:08FFF8008AF795FFF2F9FFF111
:00000001FF
