:0400000060EF00F0BD
:10000800FACFAAF0FBCFABF0E9CFACF0FBEF0AF0E8
:10001800D8CF37F0E8CF38F0E0CF39F0FACF3AF060
:10002800FBCF3BF0E9CF3CF0EACF3DF0E1CF3EF02B
:10003800E2CF3FF0D9CF40F0DACF41F0F3CF42F032
:10004800F4CF43F0F6CF44F0F7CF45F0F8CF46F0C1
:10005800F5CF47F09EA003D09E9016EC0EF09EAA16
:1000680003D09E9A7FEC04F09EB89DA802D0B7EC0E
:100078000AF047C0F5FF46C0F8FF45C0F7FF44C087
:10008800F6FF43C0F4FF42C0F3FF41C0DAFF40C0AF
:10009800D9FF3FC0E2FF3EC0E1FF3DC0EAFF3CC0E0
:1000A800E9FF3BC0FBFF3AC0FAFF39C0E0FF38C0A8
:1000B800E8FF37C0D8FF100097EF0CF08C948C84C1
:1000C800000E0001A96F000E0001A26F000E0001D2
:1000D800A86F000E0001A66F000E0001A36F010EAD
:1000E8000001A46FEDEC0EF0C6AC24D0C69C000154
:1000F80020EE21F00001C551D9260001C651DA22AF
:10010800050EDF6E010E0001A36F000120EE23F043
:100118000001C551D9260001C651DA22DF2A0001A3
:1001280020EE22F00001C551D9260001C651DA227D
:10013800040EDF6EC7A005D0C9CFA5F0010E0001DF
:10014800A96FEDEC0EF00001A367C6D1AFD1C7A629
:10015800C3D10001A95188EC08F0000120EE21F07C
:100168000001C551D9260001C651DA22080EDF6206
:10017800B3D1000E0001A96F010E0001A66FACD12A
:10018800C7A82AD0000120EE20F00001C551D926C9
:100198000001C651DA22DF2A0001A951D8B47BD167
:1001A800C7BA04D0010E0001A86F75D1000120EE76
:1001B80023F00001C551D9260001C651DA22DF2AF1
:1001C800000120EE22F00001C551D9260001C651D8
:1001D800DA22060EDF6E5FD10001A951D8B47CD1B6
:1001E800000120EE20F00001C551D9260001C651BA
:1001F800DA22DF2AC7BA2AD0C7B40BD0000120EE12
:1002080021F00001C551D9260001C651DA22070E96
:1002180079D0000120EE21F00001C551D926000156
:10022800C651DA22080EDF6E010E0001A66F000E1D
:100238000001A96F000120EE1EF00001C551D9266A
:100248000001C651DA22000EDF6E20D0000120EE38
:1002580023F00001C551D9260001C651DA22DF2A50
:10026800000120EE21F00001C551D9260001C65138
:10027800DA22050EDF6E000120EE22F00001C551E2
:10028800D9260001C651DA22060E3CD0000120EE24
:100298001EF00001C551D9260001C651DA22DF50EF
:1002A80000019D6F0E0E00019D5DD8B0F4D00001D5
:1002B80020EE1EF00001C551D9260001C651DA22F0
:1002C800DF5000019D6F00019D51010D100EF326B6
:1002D800000EF422F3500001C525D96EF450000138
:1002E800C621DA6EDF50C96E000120EE1EF0000153
:1002F800C551D9260001C651DA22DF2A010E0001B4
:10030800A26FEAD0DF6EE8D0E9EC0EF0C7A85CD0A7
:10031800E9EC0EF0000120EE20F00001C551D926CD
:100328000001C651DA22DF2A0001A951D8B448D009
:10033800C7AA25D0000120EE0EF00001C551D9262C
:100348000001C651DA22DF5000019D6F00019D5166
:10035800010DF3500001C525D96EF4500001C621E6
:10036800DA6E0001A5C0DFFF000120EE0EF00001EB
:10037800C551D9260001C651DA22DF2A21D0000151
:1003880020EE23F00001C551D9260001C651DA221A
:10039800DF2A000120EE22F00001C551D926000114
:1003A800C651DA22060EDF6E000120EE21F00001B0
:1003B800C551D9260001C651DA22050EDF6E6BD071
:1003C800010E0001A86F67D00001A951D8B484D0EC
:1003D800E9EC0EF0000120EE20F00001C551D9260D
:1003E8000001C651DA22DF2AC7AA1ED0000120EE7A
:1003F8000EF00001C551D9260001C651DA22DF509E
:1004080000019D6F00019D51010DF3500001C525AC
:10041800D96EF4500001C621DA6E0001A5C0DFFFD5
:10042800000120EE0EF02FD0C7A4C0D6000120EEA8
:1004380021F00001C551D9260001C651DA22080E63
:10044800DF6E010E0001A86F010E0001A66F000EFD
:100458000001A96F000120EE1EF00001C551D92648
:100468000001C651DA22000EDF6E000120EE10F006
:100478000001C551D9260001C651DA22DF50C96EE4
:10048800000120EE1EF00001C551D9260001C65119
:10049800DA22DF2A21D0000120EE21F00001C55127
:1004A800D9260001C651DA22050E2CD7000120EE0C
:1004B80021F00001C551D9260001C651DA22DF50CA
:1004C800050AD8B444D6030AD8B45AD6010AD8B40F
:1004D8001BD70F0AD8B4DAD6EDEC0EF00001A967E5
:1004E80004D00001A251D8B402D0C6A8C688000121
:1004F80020EE0EF00001C551D9260001C651DA22BE
:100508000E0EDF6423D00001A86720D0000120EE82
:1005180021F00001C551D9260001C651DA22050E85
:10052800DF6E000120EE23F00001C551D92600013D
:10053800C651DA22DF2A000120EE22F00001C5515F
:10054800D9260001C651DA22070EDF6E0001A85134
:10055800D8B432D0000120EE20F00001C551D926D0
:100568000001C651DA22000110EE0EF00001C5515B
:10057800E1260001C651E222E75000019D6F00010B
:100588009D51010DF3500001C525E16EF4500001A5
:10059800C621E26EDFCFE7FF280E0001966F00014B
:1005A800C6C098F00001C5C097F00E0EFFEC0DF024
:1005B800000120EE0EF041D0000120EE23F00001F2
:1005C800C551D9260001C651DA22DF50D8B43DD032
:1005D800000120EE23F00001C551D9260001C651C3
:1005E800DA22DF5000019F6F000120EE22F00001A7
:1005F800C551D9260001C651DA22DF500001A06F8B
:10060800000120EE20F00001C551D9260001C65195
:10061800DA22DF500001A16F290E0001966F000158
:10062800000E0001986F00019F0E0001976F030EE6
:10063800FFEC0DF0000120EE23F00001C551D92692
:100648000001C651DA22000EDF6E0001A651D8B4AF
:100658001FD0100E0001C5250001806F000E00019B
:10066800C6210001816F0E0E92EC07F02A0E0001E0
:10067800966F0001C6C098F00001C5C097F0000E43
:10068800FFEC0DF0010E0001A46F000E0001A66F33
:10069800EDEC0EF00001A451D8B41AD00001000E00
:1006A8000001996F0001A70E0001986F100E00015C
:1006B800C52500019A6F000E0001C62100019B6F3D
:1006C8000E0E84EC0DF000019E6F000E0001A46F69
:1006D800EDEC0EF08C848C941200010E0101346F45
:1006E800820ED36E9B8C0101010E0001B96F0101CE
:1006F8003C0E0001B86F75EC0BF00101010E000112
:10070800B96F0101380E0001B86F99EC0EF06BEC6F
:100718000CF0000E936E000E8A6E960E54EC0EF0DE
:10072800F50E9FEC0DF09F909F9A9F869E0E2CECE5
:100738000EF09D86CCEC0EF0E1EC0EF0DDEC0EF048
:10074800D9EC0EF0D5EC0EF0D1EC0EF079EC0EF001
:10075800000E0101376F0FD001013751010D010162
:10076800160EF324D96E0101010EF420DA6E550E2F
:10077800DF6E0101372B0D0E01013765EDD7010141
:10078800010E01010D6F01013B0E01010C6F01010A
:10079800010E01010F6F0101240E01010E6F0E0EF3
:1007A80069EC0DF001013A6F01013ABF51D042D016
:1007B8000101010E0001B96F0101350E0001B86F8A
:1007C800010100013BC1BAF00001BB6B01013A51C4
:1007D8000001BC6F0001BD6B0001BCBFBD0701017A
:1007E800010E0001BF6F0101240E0001BE6FC5ECB0
:1007F8000EF02ED026C110F10101255111EC0AF09E
:10080800E1EC0EF005D001012451010AD8B4F2D769
:1008180024C133F11DD0280E01010B6F0101010E17
:1008280001010D6F0101160E01010C6F0E0ED1ECC6
:100838000DF00ED001013B510A0AD8B4B9D7220AEB
:10084800D8B4E1D7010AD8B4E3D7030AD8B4E3D7B8
:100858000101010E01010D6F01013B0E01010C6F39
:100868000101010E01010F6F0101240E01010E6F3C
:100878000E0E4EEC0DF001013A6F01013ABF68D738
:1008880021D00101010E01010F6F0101380E010194
:100898000E6F01013BC110F10101116B01013A51C9
:1008A8000101126F0101136B010112BF130701014E
:1008B800010E0101156F0101240E0101146FDAEC1C
:1008C8000BF046D701013B510B0AD8B4DAD7150A09
:1008D800D8B43ED7010AD8B43BD73F0AD8B438D7E2
:1008E800010AD8B435D7030AD8B432D7010AD8B424
:1008F8002FD7070A2DD75D663BD05F50010D480EF4
:10090800F324D96E000EF420DA6EAECFDFFF5F66F7
:1009180018D04828D8B412D061660DD0010E616E87
:1009280060C030F0220E176E000E196E300E186E71
:10093800010E67EC0EF0000E5F6E1200000E616E85
:1009480016D0100E5F6413D05950FE0AD8B40FD0D9
:10095800000E5F6E60C031F0230E176E000E196E28
:10096800310E186E010E67EC0EF0010E5E6E5F2AF6
:10097800110E5F641200000E5F6E49506018D8B403
:100988000FD060C02DF049C02EF0210E176E000E5A
:10099800196E2D0E186E020E67EC0EF0010E5E6ECB
:1009A800000E2F6E000E366E000E356E3650800A21
:1009B800800F0E0ED8B4355CD8B01FD0020E352487
:1009C8001B6E000E36201C6E480E1B24D96E000EBE
:1009D8001C20DA6E1D0E3524E16E000E3620E26E04
:1009E800DFCFE7FF1D0E3524D96E000E3620DA6EF4
:1009F800DF502F1A354A362AD9D758502F18D8B46D
:100A08000DD060C032F0200E176E000E196E320E37
:100A1800186E010E67EC0EF0010E5E6E5E662CD04D
:100A28001DC034F03450110AD8B41CD03450F10A27
:100A3800D8B418D03450F20AD8B414D03450F30AC9
:100A4800D8B410D03450F40AD8B40CD060C033F005
:100A5800240E176E000E196E330E186E010E67EC19
:100A68000EF02B6E1F0E176E000E196E1D0E186EEF
:100A78000E0E67EC0EF02C6E602A000E5E6E1200F1
:100A8800010120EE56F001010051D9260101015162
:100A9800DA22DF500101076F01010751110DF350F0
:100AA8000101002501010A6FF45001010121010132
:100AB8000B6F010E0AC1D9FF0BC1DAFFDF627FD0CD
:100AC800010120EE01F001010A51D92601010B5163
:100AD800DA22DF500101025DD8B002D0FD0E12000B
:100AE800010120EE01F001010A51D92601010B5143
:100AF800DA22DF500001C26F0001C2510101086F04
:100B08000101096B0101000106C1B9F001010001F1
:100B180005C1B8F0030E01010A250001C26F000EDD
:100B280001010B210001C36FC2C0BAF0C3C0BBF002
:100B380008C1BCF009C1BDF0BFEC0CF0010120EE0A
:100B480056F001010051D92601010151DA220101B3
:100B580010EE56F001010051E12601010151E22297
:100B6800E7500001C26F010E0001C2250001B86FF5
:100B78000001B96B000EB923000E0001BB6F050E12
:100B88000001BA6FEDEC08F00001B851DF6E010109
:100B980020EE02F001010A51D92601010B51DA2297
:100BA80003C1E1FF04C1E2FFDFCFE7FF0AC1D9FFBC
:100BB8000BC1DAFF000EDF6E010108511200FC0EB6
:100BC8001200000120EE56F000018A51D9260001DA
:100BD8008B51DA22DF500001936F00019351110D00
:100BE800F35000018A250001966FF45000018B2113
:100BF8000001976F010E96C0D9FF97C0DAFFDF6238
:100C08007DD0000120EE01F000019651D9260001A7
:100C18009751DA22DF5000018C5DD8B002D0FD0E6A
:100C28001200000120EE01F000019651D9260001C2
:100C38009751DA22DF500001916F000191510001B4
:100C4800946F0001956B000190C081F000018FC086
:100C580080F0030E000196250001916F000E00013F
:100C680097210001926F91C082F092C083F094C0E6
:100C780084F095C085F0E7EC0CF0000120EE56F00A
:100C880000018A51D92600018B51DA22000110EEA9
:100C980056F000018A51E12600018B51E222E7500B
:100CA8000001916F010E000191250001806F000184
:100CB800816B000E8123000E0001836F050E000179
:100CC800826F4FEC09F000018051DF6E000120EEC9
:100CD80002F000019651D92600019751DA228DC001
:100CE800E1FF8EC0E2FFDFCFE7FF96C0D9FF97C0D4
:100CF800DAFF000EDF6E000194511200FC0E1200A4
:100D0800010102C106F10101076B010120EE55F056
:100D180001010051D92601010151DA22DF500101F8
:100D2800086F01010851110DF3500101002501015F
:100D3800096FF4500101012101010A6F09C1D9FFAE
:100D48000AC1DAFFDF50D8B402D0FF0E1200010149
:100D580020EE01F001010951D92601010A51DA22D8
:100D6800010102C1DFFF010120EE02F0010109517A
:100D7800D92601010A51DA22010103C1DFFF030E5E
:100D8800010109250001B86F000E01010A210001C7
:100D9800B96F0101000105C1BBF00101000104C1E7
:100DA800BAF006C1BCF007C1BDF0BFEC0CF0010100
:100DB80020EE55F001010051D92601010151DA2236
:100DC800010110EE55F001010051E1260101015128
:100DD800E222E7500001C26F010E0001C2250001A6
:100DE800B86F0001B96B000EB923000E0001BB6F8C
:100DF800050E0001BA6FEDEC08F00001B851DF6E86
:100E080009C1D9FF0AC1DAFF010EDF6E010E120017
:100E180000018CC091F00001926B000120EE55F0AA
:100E280000018A51D92600018B51DA22DF500001D6
:100E3800936F00019351110DF35000018A250001B1
:100E4800946FF45000018B210001956F94C0D9FF75
:100E580095C0DAFFDF50D8B402D0FF0E12000001AF
:100E680020EE01F000019451D92600019551DA22B3
:100E780000018CC0DFFF000120EE02F00001945158
:100E8800D92600019551DA2200018DC0DFFF030E3B
:100E9800000194250001806F000E000195210001DA
:100EA800816F00018FC083F000018EC082F091C075
:100EB80084F092C085F0E7EC0CF0000120EE55F0CC
:100EC80000018A51D92600018B51DA22000110EE67
:100ED80055F000018A51E12600018B51E222E750CA
:100EE8000001906F010E000190250001806F000144
:100EF800816B000E8123000E0001836F050E000137
:100F0800826F4FEC09F000018051DF6E94C0D9FF69
:100F180095C0DAFF010EDF6E010E12000001846F2A
:100F2800000120EE1FF00001C551D9260001C6516D
:100F3800DA22000EDF6E3ED0000120EE1FF0000125
:100F4800C551D9260001C651DA22DF500001826F4F
:100F580000018251010DF35000018025D96EF45033
:100F680000018121DA6E000110EE1FF00001C55169
:100F7800E1260001C651E222E7500001836F00011B
:100F88008351010D100EF326000EF422F3500001D8
:100F9800C525E16EF4500001C621E26EDFCFE7FF00
:100FA800000120EE1FF00001C551D9260001C651ED
:100FB800DA22DF2A000120EE1FF00001C551D926F0
:100FC8000001C651DA22DF500001826F000184510E
:100FD8000001825DD8A0B0D7000120EE1FF000010B
:100FE800C551D9260001C651DA22000184C0DFFFAD
:100FF800000120EE1EF00001C551D9260001C6519E
:10100800DA22010EDF6E000120EE10F00001C5515A
:10101800D9260001C651DA22DF50C96EC6881200EF
:1010280020EE56F00B50D9260C50DA22DF50146E01
:101038001450110DF3500B24176EF4500C20186E39
:10104800010E17C0D9FF18C0DAFFDF625BD020EEAF
:1010580001F01750D9261850DA22DF500D5CD8B0AD
:1010680002D0FD0E120020EE01F01750D9261850BC
:10107800DA22DF50126E1250156E166A11C002F095
:1010880010C001F0030E1724126E000E1820136E04
:1010980012C003F013C004F015C005F016C006F026
:1010A8000FEC0DF020EE56F00B50D9260C50DA223A
:1010B80010EE56F00B50E1260C50E222E750126E6B
:1010C800010E1224016E026A000E0222000E046E46
:1010D800050E036E6FEC0AF00150DF6E20EE02F091
:1010E8001750D9261850DA220EC0E1FF0FC0E2FFD0
:1010F800DFCFE7FF17C0D9FF18C0DAFF000EDF6E99
:1011080015501200FC0E12000001806F000120EE45
:1011180020F00001C551D9260001C651DA22010E7E
:10112800DF6E000120EE0EF00001C551D926000146
:10113800C651DA22000EDF6E00018051D8B43DD0CE
:10114800C7AA21D0000120EE21F00001C551D926FF
:101158000001C651DA22050EDF6E000120EE23F0F1
:101168000001C551D9260001C651DA22DF2A000143
:1011780020EE22F00001C551D9260001C651DA221D
:10118800050EDF6E1200C7A40CD0000120EE21F07E
:101198000001C551D9260001C651DA22080EDF6EBA
:1011A8001200000120EE21F00001C551D9260001EE
:1011B800C651DA22070EDF6E1200000120EE21F080
:1011C8000001C551D9260001C651DA22060EDF6E8C
:1011D8001200000E0001BD6F0001B951800AF36EC4
:1011E800800EF35C000ED8B4B85DD8B009D0000109
:1011F800B86D0001B91FD8B0B92B010E0001BD6F41
:101208000001BB51800AF36E800EF35C000ED8B467
:10121800BA5DD8B006D00001BA6D0001BB1FD8B0C6
:10122800BB2B0001BB51BA11D8B426D0010E000166
:10123800BC6F06D00001D890BA37BB370001BC2B71
:101248000001BBAFF7D70001BA510001B85D00013A
:10125800BB510001B959D8A008D00001BA5100010A
:10126800B85F0001BB510001B95B0001D890BB33E6
:10127800BA330001BC2FE7D70001BD51D8B406D05E
:101288000001B86D0001B91FD8B0B92BB8C0B8F0CB
:10129800B9C0B9F01200000E0001856F000181513C
:1012A800800AF36E800EF35C000ED8B4805DD8B06F
:1012B80009D00001806D0001811FD8B0812B010E7B
:1012C8000001856F00018351800AF36E800EF35C84
:1012D800000ED8B4825DD8B006D00001826D00013E
:1012E800831FD8B0832B000183518211D8B426D034
:1012F800010E0001846F06D00001D8908237833731
:101308000001842B000183AFF7D70001825100014F
:10131800805D0001835100018159D8A008D00001E7
:1013280082510001805F000183510001815B00014F
:10133800D890833382330001842FE7D70001855189
:10134800D8B406D00001806D0001811FD8B0812B70
:1013580080C080F081C081F012000DC012F0136AC5
:1013680020EE55F00B50D9260C50DA22DF50146EBF
:101378001450110DF3500B24156EF4500C20166EFA
:1013880015C0D9FF16C0DAFFDF50D8B402D0FF0E5F
:10139800120020EE01F01550D9261650DA220DC0A1
:1013A800DFFF20EE02F01550D9261650DA220EC0C3
:1013B800DFFF030E1524016E000E1620026E10C00A
:1013C80004F00FC003F012C005F013C006F00FECD4
:1013D8000DF020EE55F00B50D9260C50DA2210EE05
:1013E80055F00B50E1260C50E222E750116E010E29
:1013F8001124016E026A000E0222000E046E050E10
:10140800036E6FEC0AF00150DF6E15C0D9FF16C0ED
:10141800DAFF010EDF6E010E12000101116F800E5E
:101428000101126F010111BF06D0000E0101136FF7
:1014380011C114F110D0010E0101136F01011151F6
:10144800800AD8A403D00101112902D00101115149
:1014580000080101146F0101135101011425010154
:1014680012257F0B0101156F0101010E01010F6F9C
:101478000101120E01010E6F89EC0EF0010110BF7F
:1014880006D0040E0101136F10C114F110D0050E1F
:101498000101136F01011051800AD8A403D0010182
:1014A800102902D00101105100080101146F010137
:1014B800135101011425010112257F0B0101156F3C
:1014C8000101010E01010F6F0101120E01010E6FE2
:1014D80089EC0EF01200000E066E0250800AF36EC0
:1014E800800EF35C000ED8B4015CD8B006D0016C55
:1014F800021ED8B0022A010E066E0450800AF36E4E
:10150800800EF35C000ED8B4035CD8B004D0036C32
:10151800041ED8B0042A04500310D8B418D0010E01
:10152800056E04D0D89003360436052A04AEFAD7DF
:101538000350015C04500258D8A004D00350015E47
:101548000450025AD89004320332052EF1D70650BF
:10155800D8B404D0016C021ED8B0022A01C001F030
:1015680002C002F01200E5EC0EF01F0E226E63506E
:10157800D8B42CD0000E1A6E220E196E000E1C6EF6
:101588001E0E1B6E040E40EC0EF0236E2350FC0A58
:10159800D8A402D09D9812002350800A7F0FD8A0AB
:1015A8001200000E626E000E636E6250010D1E0E78
:1015B800F324D96E000EF420DA6EDF50AD6E622A85
:1015C800030E62641200010E636E12006250010D78
:1015D8001E0EF324D96E000EF420DA6EDF50AD6EC5
:1015E800622A030E62641200010E636E1200EACFD3
:1015F800ADF0E1CFAEF0E2CFAFF0D9CFB0F0DACFB7
:10160800B1F0F3CFB2F0F4CFB3F0F6CFB4F0F7CF38
:10161800B5F0F8CFB6F0F5CFB7F08C9C8C8C9EA6C1
:1016280003D09E9662EC00F0F2A403D0F2943EEC54
:101638000BF03BEC0CF08C8C8C9CB7C0F5FFB6C063
:10164800F8FFB5C0F7FFB4C0F6FFB3C0F4FFB2C0EF
:10165800F3FFB1C0DAFFB0C0D9FFAFC0E2FFAEC040
:10166800E1FFADC0EAFFACC0E9FFABC0FBFFAAC019
:10167800FAFF1100000E0001816F000E0001806F5B
:10168800B4EC0EF00001000E0001996F00019F0EEE
:101698000001986F0001000E00019B6F0001A10E70
:1016A80000019A6F020E84EC0DF000019D6F00019D
:1016B8009E6B00019DBF9E0700019D51020A9E116D
:1016C800D8A412000A0E0001966F0001000E000156
:1016D800986F0001A10E0001976F020EFFEC0DF04C
:1016E80012000001B9C0C6F00001B8C0C5F0000181
:1016F80020EE0EF00001C551D9260001C651DA22AC
:10170800000EDF6E000120EE20F00001C551D92641
:101718000001C651DA22000EDF6E000120EE21F032
:101728000001C551D9260001C651DA22050EDF6E27
:10173800000120EE23F00001C551D9260001C65151
:10174800DA22000EDF6E1200000120EE55F00001D3
:10175800B851D9260001B951DA22000EDF6E000116
:1017680020EE56F00001B851D9260001B951DA220D
:10177800000EDF6E000E0001BA6F040E0001BA659C
:1017880001D012000001BA51110DF3500001B82523
:10179800D96EF4500001B921DA6E000EDF6E000137
:1017A800BA2B040E0001BA65EDD71200F4EC0EF066
:1017B8000EC1D9FF0FC1DAFFDE2A000EDD220EC1ED
:1017C800D9FF0FC1DAFF0001DECFB8F00001DDCF8D
:1017D800B9F0000E0001BB6F0A0E0001BA6F0BECE6
:1017E8000CF00001B851090A0001B911D8A412007F
:1017F800140E01010B6F01010FC10DF101010EC1A2
:101808000CF1020ED1EC0DF00001C46F12000001C2
:10181800BB51BA11D8B426D0010E0001BC6F06D056
:101828000001D890BA37BB370001BC2B0001BBAF11
:10183800F7D70001BA510001B85D0001BB510001A2
:10184800B959D8A008D00001BA510001B85F000109
:10185800BB510001B95B0001D890BB33BA3300011A
:10186800BC2FE7D7B8C0B8F0B9C0B9F01200000172
:10187800C76701D012002FEC0DF000018351000161
:101888008211D8A41200BDEC0EF0000181510001B4
:101898008011D8B412000201020E0001816F02010A
:1018A800570E0001806FB8EC0DF00009D8A41200A3
:1018B8000101010E0001816F0101620E0001806FBC
:1018C800B8EC0DF00009D8B4F1EC0EF01200000EDF
:1018D8000001C76F0101010E0001B96F0101620E1D
:1018E8000001B86FA8EC0BF00201020E0001B96FFD
:1018F8000201570E0001B86FA8EC0BF00201020EAE
:101908000001B96F0201000E0001B86FA8EC0BF0DE
:101918000301030E0001B96F0301000E0001B86F47
:10192800A8EC0BF0120003EE00F0570EEE6AE80682
:10193800FDE102EE00F0AE0EEE6AE806FDE101EE12
:1019480062F0570EEE6AE806FDE10001C76B00EE93
:1019580048F01B0EEE6AE806FDE1EC0EF66E1D0E71
:10196800F76E000EF86E0900F5CF63F0000EF86E02
:10197800000171EF03F00001BBC0C1F00001BAC063
:10198800C0F00001B9C0BFF00001B8C0BEF010D06F
:10199800C0C0D9FFC1C0DAFFBEC0E1FFBFC0E2FFCF
:1019A800DFCFE7FF0001C04BC12B0001BE4BBF2BAF
:1019B8000001BC07D8A0BD070001BC29D8B4BD29C7
:1019C800D8B41200E5D7000183C089F0000182C0B5
:1019D80088F0000181C087F0000180C086F010D037
:1019E80088C0D9FF89C0DAFF86C0E1FF87C0E2FF5F
:1019F800DFCFE7FF0001884B892B0001864B872B3F
:101A080000018407D8A0850700018429D8B4852956
:101A1800D8B41200E5D704C00AF003C009F002C028
:101A280008F001C007F00ED009C0D9FF0AC0DAFFDC
:101A380007C0E1FF08C0E2FFDFCFE7FF094A0A2A33
:101A4800074A082A0506D8A006060528D8B4062895
:101A5800D8B41200E9D7F2AC07D0000E0001836FAA
:101A6800000E0001826F1200BDEC0EF000018151E2
:101A780000018011D8B407D0000E0001836F000E5A
:101A88000001826F1200000E0001836F010E000139
:101A9800826F12000001C46F0101010E0101016F84
:101AA8000101620E0101006FC4C002F101010DC104
:101AB80004F101010CC103F101010FC106F101019B
:101AC8000EC105F144EC05F012000001C46F0201DB
:101AD800020E0101016F0201570E0101006FC4C01F
:101AE80002F101010DC104F101010CC103F1010171
:101AF8000FC106F101010EC105F144EC05F0120019
:101B080000019C6F0301030E00018B6F0301000E9F
:101B180000018A6F9CC08CF0000199C08EF0000112
:101B280098C08DF000019BC090F000019AC08FF022
:101B3800E5EC05F012000001B86F0001B8517E0B0A
:101B4800CD6E0001B8AD02D0CD8E01D0CD9E000E75
:101B5800CF6E000ECE6E9E900001B8AF02D09D8071
:101B680001D09D90CD801200000120EE56F00001BA
:101B78008051D92600018151DA22DF500001826F9D
:101B880000018251110DF35000018025D96EF450E7
:101B980000018121DA6EDF5012000001C36F0301DA
:101BA800030E0101016F0301000E0101006FC3C0A4
:101BB80002F10BC103F101010DC105F101010CC1D5
:101BC80004F184EC06F012000001C36F0201020E5A
:101BD8000101016F0201000E0101006FC3C002F193
:101BE8000BC103F101010DC105F101010CC104F1A3
:101BF80084EC06F012000001996F0201020E000148
:101C08008B6F0201570E00018A6F99C08CF096C045
:101C18008DF0000198C08FF0000197C08EF00CEC99
:101C280007F01200ABEC0EF001C01BF002C01CF074
:101C38000B0E176E000E196E000E186E000E67EC74
:101C48000EF0000E026E000E016EA2EC0EF01200F5
:101C58000001B86F94869488B8C0C8FF000EC76E9C
:101C6800000EC66E000EC56E0E0EC612C78E948686
:101C78009488C580C68A12001D6E0201020E0C6E81
:101C88000201000E0B6E1DC00DF01AC00FF019C036
:101C98000EF01CC011F01BC010F014EC08F012007C
:101CA8000001B86F0001B8517F0BD56E000ED76EDA
:101CB800000ED66EF2940001B8AF02D0F28A01D0BD
:101CC800F29AD58E12001A6E0101010E0C6E0101F6
:101CD800620E0B6E1AC00DF017C00EF019C010F08E
:101CE80018C00FF0B1EC09F01200948E949CB886DD
:101CF800AC84040EB06EE10EAF6EAC98AB8E9F98BC
:101D08009D989D8AAC8AAB8812001F0E01010B6F4B
:101D180001010FC10DF101010EC10CF1040EE8EC37
:101D28000DF00001C46F9D881200B8C0D9FFB9C07A
:101D3800DAFF000EDE6E000EDD6E120001C003F049
:101D480002C004F004C0CFFF03C0CEFF1200CECF04
:101D580003F0CFCF04F003C001F004C002F012007A
:101D680080C082F081C083F083C0D7FF82C0D6FFD5
:101D78001200000EF2AE010E0001806F0001816BAF
:101D880012000001BFC0C1F00001BEC0C0F01200C7
:101D9800000E956E939093921200D08EF28EF28C74
:101DA80012008C9C8C8C8C9C12008C9A8C8A8C9A3D
:101DB80012008C988C888C9812008C948C848C944B
:101DC80012008C948C848C9412008C9A8C8A8C9A35
:101DD80012008C988C888C981200D38E0300120005
:061DE8008A7012000100E8
:067FF80080F4C5FFFFF15B
:00000001FF
