:040000008FEF00F08E
:10000800FACFAAF0FBCFABF0E9CFACF0F9EF0AF0EA
:10001800D8CF37F0E8CF38F0E0CF39F0FACF3AF060
:10002800FBCF3BF0E9CF3CF0EACF3DF0E1CF3EF02B
:10003800E2CF3FF0D9CF40F0DACF41F0F3CF42F032
:10004800F4CF43F0F6CF44F0F7CF45F0F8CF46F0C1
:10005800F5CF47F09EA007D09E90010E6C26000EAB
:100068006D226E226F22F2A40BD0F29470EC0EF087
:10007800010E6826000E69226A226B2279EC0EF0C6
:100088009EAA03D09E9A01EC05F09EB89DA802D0C6
:10009800B7EC0AF09EAC1CD09E9C6BC04AF06AC0BC
:1000A8004BF069C04CF068C04DF06FC04EF06EC0A8
:1000B8004FF06DC050F06CC051F02F0E176E000E4F
:1000C800196E480E186E0E0E09EC0EF06CEC0EF060
:1000D80047C0F5FF46C0F8FF45C0F7FF44C0F6FF2C
:1000E80043C0F4FF42C0F3FF41C0DAFF40C0D9FF6C
:1000F8003FC0E2FF3EC0E1FF3DC0EAFF3CC0E9FF70
:100108003BC0FBFF3AC0FAFF39C0E0FF38C0E8FF48
:1001180037C0D8FF100055EF0CF0000E0001A96F92
:10012800000E0001A26F000E0001A86F000E000172
:10013800A66F000E0001A36F010E0001A46FC6ACEC
:1001480024D0C69C000120EE21F00001C551D9261B
:100158000001C651DA22050EDF6E010E0001A36F01
:10016800000120EE23F00001C551D9260001C65137
:10017800DA22DF2A000120EE22F00001C551D9263B
:100188000001C651DA22040EDF6EC7A005D0C9CF20
:10019800A5F0010E0001A96F0001A367EFD1D8D126
:1001A800C7A6ECD10001A95188EC08F0000120EEA7
:1001B80021F00001C551D9260001C651DA22080EE6
:1001C800DF62DCD1000E0001A96F010E0001A66FED
:1001D800D5D1C7A834D0000120EE20F00001C551C8
:1001E800D9260001C651DA22DF2A0001A951D8B464
:1001F8001BD0C7BA04D0010E0001A86F15D00001AA
:1002080020EE23F00001C551D9260001C651DA229B
:10021800DF2A000120EE22F00001C551D926000195
:10022800C651DA22060EDF6E000120EE21F0000131
:10023800C551D9260001C651DA22050E96D0000113
:10024800A951D8B49BD1000120EE20F00001C5517E
:10025800D9260001C651DA22DF2AC7BA2AD0C7B484
:100268000BD0000120EE21F00001C551D926000174
:10027800C651DA22070E79D0000120EE21F00001E4
:10028800C551D9260001C651DA22080EDF6E010ECB
:100298000001A66F000E0001A96F000120EE1EF0FC
:1002A8000001C551D9260001C651DA22000EDF6EC1
:1002B80020D0000120EE23F00001C551D92600010D
:1002C800C651DA22DF2A000120EE21F00001C551D3
:1002D800D9260001C651DA22050EDF6E000120EE94
:1002E80022F00001C551D9260001C651DA22060EB6
:1002F8003CD0000120EE1EF00001C551D9260001B6
:10030800C651DA22DF5000019D6F0E0E00019D5D7F
:10031800D8B08AD7000120EE1EF00001C551D926B9
:100328000001C651DA22DF5000019D6F00019D5186
:10033800010D100EF326000EF422F3500001C5251E
:10034800D96EF4500001C621DA6EDF50C96E000183
:1003580020EE1EF00001C551D9260001C651DA224F
:10036800DF2A010E0001A26F09D1DF6E07D1C7A8ED
:1003780059D0000120EE20F00001C551D926000116
:10038800C651DA22DF2A0001A951D8B447D0C7AA3A
:1003980025D0000120EE0EF00001C551D92600013C
:1003A800C651DA22DF5000019D6F00019D51010DF9
:1003B800F3500001C525D96EF4500001C621DA6E4C
:1003C8000001A5C0DFFF000120EE0EF00001C551BD
:1003D800D9260001C651DA22DF2A20D0000120EEFA
:1003E80023F00001C551D9260001C651DA22DF2ABF
:1003F800000120EE22F00001C551D9260001C651A6
:10040800DA22060EDF6E000120EE21F00001C55150
:10041800D9260001C651DA22050E05D7010E0001C2
:10042800A86F02D70001A951D8B4A8D0000120EEC6
:1004380020F00001C551D9260001C651DA22DF2A71
:10044800C7AA1ED0000120EE0EF00001C551D92622
:100458000001C651DA22DF5000019D6F00019D5155
:10046800010DF3500001C525D96EF4500001C621D5
:10047800DA6E0001A5C0DFFF000120EE0EF036D0D5
:10048800C7A4BDD6060EC5C0D9FFC6C0DAFFDF6255
:1004980035D0000120EE21F00001C551D926000118
:1004A800C651DA22080EDF6E010E0001A86F010E98
:1004B8000001A66F000E0001A96F000120EE1EF0DA
:1004C8000001C551D9260001C651DA22000EDF6E9F
:1004D800000120EE10F00001C551D9260001C651D7
:1004E800DA22DF50C96E000120EE1EF00001C5516E
:1004F800D9260001C651DA22DF2A40D0000120EEB9
:100508001EF00001C551D9260001C651DA22DF507C
:1005180000019D6F0E0E00019D5DD8B00ED0000148
:1005280020EE1EF00001C551D9260001C651DA227D
:10053800DF2A000E0001A96F21D0000120EE1EF075
:100548000001C551D9260001C651DA22000E6BD62A
:10055800000120EE21F00001C551D9260001C65145
:10056800DA22DF50050AD8B41BD6030AD8B431D62C
:10057800010AD8B4FCD60F0AD8B4BBD60001A967C3
:1005880004D00001A251D8B402D0C6A8C688000180
:1005980020EE0EF00001C551D9260001C651DA221D
:1005A8000E0EDF6423D00001A86720D0000120EEE2
:1005B80021F00001C551D9260001C651DA22050EE5
:1005C800DF6E000120EE23F00001C551D92600019D
:1005D800C651DA22DF2A000120EE22F00001C551BF
:1005E800D9260001C651DA22070EDF6E0001A85194
:1005F800D8B432D0000120EE20F00001C551D92630
:100608000001C651DA22000110EE0EF00001C551BA
:10061800E1260001C651E222E75000019D6F00016A
:100628009D51010DF3500001C525E16EF450000104
:10063800C621E26EDFCFE7FF280E0001966F0001AA
:10064800C6C098F00001C5C097F00E0ECAEC0DF0B8
:10065800000120EE0EF041D0000120EE23F0000151
:10066800C551D9260001C651DA22DF50D8B43DD091
:10067800000120EE23F00001C551D9260001C65122
:10068800DA22DF5000019F6F000120EE22F0000106
:10069800C551D9260001C651DA22DF500001A06FEA
:1006A800000120EE20F00001C551D9260001C651F5
:1006B800DA22DF500001A16F290E0001966F0001B8
:1006C800000E0001986F00019F0E0001976F030E46
:1006D800CAEC0DF0000120EE23F00001C551D92627
:1006E8000001C651DA22000EDF6E0001A651D8B40F
:1006F8001FD0100E0001C5250001806F000E0001FB
:10070800C6210001816F0E0ECDEC0CF02A0E0001FF
:10071800966F0001C6C098F00001C5C097F0000EA2
:10072800CAEC0DF0010E0001A46F000E0001A66FC7
:100738000001A451D8B412000001000E0001996F05
:100748000001A70E0001986F100E0001C5250001D9
:100758009A6F000E0001C62100019B6F0E0E68EC17
:100768000DF000019E6F000E0001A46F1200010E33
:100778000101346F820ED36E9B8C0101010E0001C2
:10078800B96F0101400E0001B86F33EC0BF00101A5
:10079800010E0001B96F0101370E0001B86F3BEC83
:1007A8000EF029EC0CF0000E936E000E8A6EF28AA1
:1007B800938AD58CD58AD588D586D550F80B01096A
:1007C800D56ED58E9F909F9A9F86F1949C0EE1ECF2
:1007D8000DF09D869F9C9D8C53EC0EF068EC0EF0FE
:1007E80064EC0EF060EC0EF05CEC0EF058EC0EF0E1
:1007F8001BEC0EF0070E0101166F010E01013F6F91
:100808000FD001013F51010D0101160EF324D96EDD
:100818000101010EF420DA6E440EDF6E01013F2B58
:100828000D0E01013F65EDD70101010E01010D6FAC
:1008380001013E0E01010C6F0101010E01010F6F54
:100848000101240E01010E6F0E0E4DEC0DF0010199
:100858003D6F01013DBF53D044D00101010E00019D
:10086800B96F0101350E0001B86F010100013EC1E9
:10087800BAF00001BB6B01013D510001BC6F0001E2
:10088800BD6B0001BCBFBD070101010E0001BF6FB8
:100898000101240E0001BE6F4CEC0EF030D026C1D1
:1008A80010F10101255111EC0AF005D00101245184
:1008B800010AD8B4F4D724C133F121D09E8C280E74
:1008C80001010B6F0101010E01010D6F0101160EEF
:1008D80001010C6F0E0E9CEC0DF0000E0101176F5C
:1008E8000ED001013E510A0AD8B4B7D7220AD8B4AB
:1008F800DDD7010AD8B4DFD7030AD8B4DFD701019E
:10090800010E01010D6F01013E0E01010C6F010185
:10091800010E01010F6F0101240E01010E6F0E0E71
:1009280032EC0DF001013D6F01013DBF7DD747D08D
:100938000101010E01010F6F0101370E01010E6F58
:1009480001013EC110F10101116B01013D5101018D
:10095800126F0101136B010112BF13070101010E90
:100968000101156F0101240E0101146F98EC0BF0C1
:100978005BD7020E01013F6F1AD001013F51010DF3
:100988000101240EF324D96E0101010EF420DA6E60
:1009980001013F51010D0101160EF324E16E010121
:1009A800010EF420E26EDFCFE7FF01013F2B0D0EB1
:1009B80001013F65E2D7030E0101176F35D7010129
:1009C8003E510B0AD8B4B4D7150AD8B42DD7010AAA
:1009D800D8B42AD73F0AD8B427D7010AD8B424D71D
:1009E800030AD8B421D7010AD8B41ED7070AD8B445
:1009F8001BD70B0AD8B4BDD717D773663BD0755031
:100A0800010D560EF324D96E000EF420DA6EAECF27
:100A1800DFFF756618D05628D8B412D077660DD087
:100A2800010E776E76C030F0220E176E000E196E2A
:100A3800300E186E010E09EC0EF0000E756E1200E5
:100A4800000E776E16D0100E756413D06750FE0A2C
:100A5800D8B40FD0000E756E76C031F0230E176E25
:100A6800000E196E310E186E010E09EC0EF0010E13
:100A7800746E752A110E75641200000E756E57504B
:100A88007618D8B40FD076C02DF057C02EF0210EAE
:100A9800176E000E196E2D0E186E020E09EC0EF070
:100AA800010E746E000E2F6E000E366E000E356E3F
:100AB8003650800A800F0E0ED8B4355CD8B01FD0DF
:100AC800020E35241B6E000E36201C6E560E1B249B
:100AD800D96E000E1C20DA6E1D0E3524E16E000E54
:100AE8003620E26EDFCFE7FF1D0E3524D96E000EEB
:100AF8003620DA6EDF502F1A354A362AD9D7665093
:100B08002F18D8B40DD076C032F0200E176E000E14
:100B1800196E320E186E010E09EC0EF0010E746E8D
:100B280074662CD01DC034F03450110AD8B41CD0CF
:100B38003450F10AD8B418D03450F20AD8B414D0CA
:100B48003450F30AD8B410D03450F40AD8B40CD0C6
:100B580076C033F0240E176E000E196E330E186E21
:100B6800010E09EC0EF02B6E1F0E176E000E196E9B
:100B78001D0E186E0E0E09EC0EF02C6E762A000E65
:100B8800746E1200010120EE56F001010051D926C1
:100B980001010151DA22DF500101076F01010751FC
:100BA800110DF3500101002501010A6FF4500101F4
:100BB800012101010B6F010E0AC1D9FF0BC1DAFF38
:100BC800DF627FD0010120EE01F001010A51D92630
:100BD80001010B51DA22DF500101025DD8B002D0C9
:100BE800FD0E1200010120EE01F001010A51D92683
:100BF80001010B51DA22DF500001C26F0001C2511E
:100C08000101086F0101096B0101000106C1B9F07A
:100C18000101000105C1B8F0030E01010A25000118
:100C2800C26F000E01010B210001C36FC2C0BAF0F0
:100C3800C3C0BBF008C1BCF009C1BDF07DEC0CF02D
:100C4800010120EE56F001010051D92601010151A0
:100C5800DA22010110EE56F001010051E1260101EE
:100C68000151E222E7500001C26F010E0001C225C6
:100C78000001B86F0001B96B000EB923000E000126
:100C8800BB6F050E0001BA6FEDEC08F00001B8511A
:100C9800DF6E010120EE02F001010A51D92601019F
:100CA8000B51DA2203C1E1FF04C1E2FFDFCFE7FF06
:100CB8000AC1D9FF0BC1DAFF000EDF6E010108512E
:100CC8001200FC0E1200000120EE56F000018A51BD
:100CD800D92600018B51DA22DF500001936F000101
:100CE8009351110DF35000018A250001966FF450BD
:100CF80000018B210001976F010E96C0D9FF97C0A4
:100D0800DAFFDF627DD0000120EE01F0000196518C
:100D1800D92600019751DA22DF5000018C5DD8B046
:100D280002D0FD0E1200000120EE01F000019651E4
:100D3800D92600019751DA22DF500001916F000196
:100D480091510001946F0001956B000190C081F0F2
:100D580000018FC080F0030E000196250001916FFD
:100D6800000E000197210001926F91C082F092C09D
:100D780083F094C084F095C085F0A5EC0CF00001D8
:100D880020EE56F000018A51D92600018B51DA2253
:100D9800000110EE56F000018A51E12600018B5146
:100DA800E222E7500001916F010E00019125000138
:100DB800806F0001816B000E8123000E0001836F9C
:100DC800050E0001826F4FEC09F000018051DF6EC3
:100DD800000120EE02F000019651D926000197513A
:100DE800DA228DC0E1FF8EC0E2FFDFCFE7FF96C0B9
:100DF800D9FF97C0DAFF000EDF6E00019451120090
:100E0800FC0E1200010102C106F10101076B01018C
:100E180020EE55F001010051D92601010151DA22D5
:100E2800DF500101086F01010851110DF350010154
:100E380000250101096FF4500101012101010A6F28
:100E480009C1D9FF0AC1DAFFDF50D8B402D0FF0EBA
:100E58001200010120EE01F001010951D92601011A
:100E68000A51DA22010102C1DFFF010120EE02F07E
:100E780001010951D92601010A51DA22010103C1F0
:100E8800DFFF030E010109250001B86F000E010103
:100E98000A210001B96F0101000105C1BBF0010180
:100EA800000104C1BAF006C1BCF007C1BDF07DEC79
:100EB8000CF0010120EE55F001010051D926010185
:100EC8000151DA22010110EE55F001010051E1262D
:100ED80001010151E222E7500001C26F010E000139
:100EE800C2250001B86F0001B96B000EB923000ECE
:100EF8000001BB6F050E0001BA6FEDEC08F00001B0
:100F0800B851DF6E09C1D9FF0AC1DAFF010EDF6EE1
:100F1800010E120000018CC091F00001926B0001DB
:100F280020EE55F000018A51D92600018B51DA22B2
:100F3800DF500001936F00019351110DF350000130
:100F48008A250001946FF45000018B210001956FF0
:100F580094C0D9FF95C0DAFFDF50D8B402D0FF0E95
:100F68001200000120EE01F000019451D926000181
:100F78009551DA2200018CC0DFFF000120EE02F05B
:100F880000019451D92600019551DA2200018DC043
:100F9800DFFF030E000194250001806F000E0001A1
:100FA80095210001816F00018FC083F000018EC080
:100FB80082F091C084F092C085F0A5EC0CF000019D
:100FC80020EE55F000018A51D92600018B51DA2212
:100FD800000110EE55F000018A51E12600018B5105
:100FE800E222E7500001906F010E000190250001F8
:100FF800806F0001816B000E8123000E0001836F5A
:10100800050E0001826F4FEC09F000018051DF6E80
:1010180094C0D9FF95C0DAFF010EDF6E010E1200F1
:1010280020EE56F00B50D9260C50DA22DF50146E01
:101038001450110DF3500B24176EF4500C20186E39
:10104800010E17C0D9FF18C0DAFFDF625BD020EEAF
:1010580001F01750D9261850DA22DF500D5CD8B0AD
:1010680002D0FD0E120020EE01F01750D9261850BC
:10107800DA22DF50126E1250156E166A11C002F095
:1010880010C001F0030E1724126E000E1820136E04
:1010980012C003F013C004F015C005F016C006F026
:1010A800F3EC0CF020EE56F00B50D9260C50DA2257
:1010B80010EE56F00B50E1260C50E222E750126E6B
:1010C800010E1224016E026A000E0222000E046E46
:1010D800050E036E6FEC0AF00150DF6E20EE02F091
:1010E8001750D9261850DA220EC0E1FF0FC0E2FFD0
:1010F800DFCFE7FF17C0D9FF18C0DAFF000EDF6E99
:1011080015501200FC0E12000001806F000120EE45
:1011180020F00001C551D9260001C651DA22010E7E
:10112800DF6E000120EE0EF00001C551D926000146
:10113800C651DA22000EDF6E00018051D8B43DD0CE
:10114800C7AA21D0000120EE21F00001C551D926FF
:101158000001C651DA22050EDF6E000120EE23F0F1
:101168000001C551D9260001C651DA22DF2A000143
:1011780020EE22F00001C551D9260001C651DA221D
:10118800050EDF6E1200C7A40CD0000120EE21F07E
:101198000001C551D9260001C651DA22080EDF6EBA
:1011A8001200000120EE21F00001C551D9260001EE
:1011B800C651DA22070EDF6E1200000120EE21F080
:1011C8000001C551D9260001C651DA22060EDF6E8C
:1011D8001200000E0001BD6F0001B951800AF36EC4
:1011E800800EF35C000ED8B4B85DD8B009D0000109
:1011F800B86D0001B91FD8B0B92B010E0001BD6F41
:101208000001BB51800AF36E800EF35C000ED8B467
:10121800BA5DD8B006D00001BA6D0001BB1FD8B0C6
:10122800BB2B0001BB51BA11D8B426D0010E000166
:10123800BC6F06D00001D890BA37BB370001BC2B71
:101248000001BBAFF7D70001BA510001B85D00013A
:10125800BB510001B959D8A008D00001BA5100010A
:10126800B85F0001BB510001B95B0001D890BB33E6
:10127800BA330001BC2FE7D70001BD51D8B406D05E
:101288000001B86D0001B91FD8B0B92BB8C0B8F0CB
:10129800B9C0B9F01200000E0001856F000181513C
:1012A800800AF36E800EF35C000ED8B4805DD8B06F
:1012B80009D00001806D0001811FD8B0812B010E7B
:1012C8000001856F00018351800AF36E800EF35C84
:1012D800000ED8B4825DD8B006D00001826D00013E
:1012E800831FD8B0832B000183518211D8B426D034
:1012F800010E0001846F06D00001D8908237833731
:101308000001842B000183AFF7D70001825100014F
:10131800805D0001835100018159D8A008D00001E7
:1013280082510001805F000183510001815B00014F
:10133800D890833382330001842FE7D70001855189
:10134800D8B406D00001806D0001811FD8B0812B70
:1013580080C080F081C081F012000DC012F0136AC5
:1013680020EE55F00B50D9260C50DA22DF50146EBF
:101378001450110DF3500B24156EF4500C20166EFA
:1013880015C0D9FF16C0DAFFDF50D8B402D0FF0E5F
:10139800120020EE01F01550D9261650DA220DC0A1
:1013A800DFFF20EE02F01550D9261650DA220EC0C3
:1013B800DFFF030E1524016E000E1620026E10C00A
:1013C80004F00FC003F012C005F013C006F0F3ECF0
:1013D8000CF020EE55F00B50D9260C50DA2210EE06
:1013E80055F00B50E1260C50E222E750116E010E29
:1013F8001124016E026A000E0222000E046E050E10
:10140800036E6FEC0AF00150DF6E15C0D9FF16C0ED
:10141800DAFF010EDF6E010E12000101116F800E5E
:101428000101126F010111BF06D0000E0101136FF7
:1014380011C114F110D0010E0101136F01011151F6
:10144800800AD8A403D00101112902D00101115149
:1014580000080101146F0101135101011425010154
:1014680012257F0B0101156F0101010E01010F6F9C
:101478000101120E01010E6F2BEC0EF0010110BFDD
:1014880006D0040E0101136F10C114F110D0050E1F
:101498000101136F01011051800AD8A403D0010182
:1014A800102902D00101105100080101146F010137
:1014B800135101011425010112257F0B0101156F3C
:1014C8000101010E01010F6F0101120E01010E6FE2
:1014D8002BEC0EF01200000E066E0250800AF36E1E
:1014E800800EF35C000ED8B4015CD8B006D0016C55
:1014F800021ED8B0022A010E066E0450800AF36E4E
:10150800800EF35C000ED8B4035CD8B004D0036C32
:10151800041ED8B0042A04500310D8B418D0010E01
:10152800056E04D0D89003360436052A04AEFAD7DF
:101538000350015C04500258D8A004D00350015E47
:101548000450025AD89004320332052EF1D70650BF
:10155800D8B404D0016C021ED8B0022A01C001F030
:1015680002C002F012001F0E226E7950D8B42CD09F
:10157800000E1A6E220E196E000E1C6E1E0E1B6EC9
:10158800040EF5EC0DF0236E2350FC0AD8A402D00B
:101598009D9812002350800A7F0FD8A01200000ED9
:1015A800786E000E796E7850010D1E0EF324D96EF8
:1015B800000EF420DA6EDF50AD6E782A030E7864E0
:1015C8001200010E796E12007850010D1E0EF324E0
:1015D800D96E000EF420DA6EDF50AD6E782A030E55
:1015E80078641200010E796E1200EACFADF0E1CFF7
:1015F800AEF0E2CFAFF0D9CFB0F0DACFB1F0F3CFA1
:10160800B2F0F4CFB3F0F6CFB4F0F7CFB5F0F8CF2F
:10161800B6F0F5CFB7F09EA603D09E9691EC00F0F9
:10162800F9EC0BF0B7C0F5FFB6C0F8FFB5C0F7FF8F
:10163800B4C0F6FFB3C0F4FFB2C0F3FFB1C0DAFF25
:10164800B0C0D9FFAFC0E2FFAEC0E1FFADC0EAFF56
:10165800ACC0E9FFABC0FBFFAAC0FAFF1100000154
:10166800B9C0C6F00001B8C0C5F0000120EE0EF008
:101678000001C551D9260001C651DA22000EDF6EDD
:10168800000120EE20F00001C551D9260001C65105
:10169800DA22000EDF6E000120EE21F00001C551B4
:1016A800D9260001C651DA22050EDF6E000120EEB0
:1016B80023F00001C551D9260001C651DA22000ED7
:1016C800DF6E1200000120EE55F00001B851D92656
:1016D8000001B951DA22000EDF6E000120EE56F04B
:1016E8000001B851D9260001B951DA22000EDF6E87
:1016F800000E0001BA6F040E0001BA6501D0120095
:101708000001BA51110DF3500001B825D96EF450FB
:101718000001B921DA6E000EDF6E0001BA2B040E4B
:101728000001BA65EDD7120077EC0EF00EC1D9FFB3
:101738000FC1DAFFDE2A000EDD220EC1D9FF0FC16C
:10174800DAFF0001DECFB8F00001DDCFB9F0000EFE
:101758000001BB6F0A0E0001BA6FC9EC0BF0000163
:10176800B851090A0001B911D8A41200140E0101D8
:101778000B6F01010FC10DF101010EC10CF1020E39
:101788009CEC0DF00001C46F12000001BB51BA11AE
:10179800D8B426D0010E0001BC6F06D00001D89045
:1017A800BA37BB370001BC2B0001BBAFF7D700012C
:1017B800BA510001B85D0001BB510001B959D8A068
:1017C80008D00001BA510001B85F0001BB51000107
:1017D800B95B0001D890BB33BA330001BC2FE7D7FF
:1017E800B8C0B8F0B9C0B9F012000001C76701D09D
:1017F800120013EC0DF00001835100018211D8A4EE
:10180800120044EC0EF00001815100018011D8B49F
:1018180012000201020E0001816F0201570E000141
:10182800806F83EC0DF00009D8A412000101010EAD
:101838000001816F0101660E0001806F83EC0DF0DD
:101848000009D8B474EC0EF01200000E0001C76F46
:101858000101010E0001B96F0101660E0001B86FA8
:1018680066EC0BF00201020E0001B96F0201570E7F
:101878000001B86F66EC0BF00201020E0001B96FAF
:101888000201000E0001B86F66EC0BF00301030EB5
:101898000001B96F0301000E0001B86F66EC0BF090
:1018A800120003EE00F0570EEE6AE806FDE102EEC4
:1018B80000F0AE0EEE6AE806FDE101EE66F0570EA6
:1018C800EE6AE806FDE10001C76B00EE56F0230E54
:1018D800EE6AE806FDE1F60EF66E1C0EF76E000ED7
:1018E800F86E0900F5CF79F0000EF86E0001BBEF35
:1018F80003F00001BBC0C1F00001BAC0C0F0000194
:10190800B9C0BFF00001B8C0BEF010D0C0C0D9FF48
:10191800C1C0DAFFBEC0E1FFBFC0E2FFDFCFE7FF13
:101928000001C04BC12B0001BE4BBF2B0001BC07FF
:10193800D8A0BD070001BC29D8B4BD29D8B412006D
:10194800E5D7000183C089F0000182C088F000015A
:1019580081C087F0000180C086F010D088C0D9FF10
:1019680089C0DAFF86C0E1FF87C0E2FFDFCFE7FF6B
:101978000001884B892B0001864B872B00018407C7
:10198800D8A0850700018429D8B48529D8B41200C5
:10199800E5D70001826F000120EE1FF00001C5515C
:1019A800D9260001C651DA22000182C0DFFF0001FA
:1019B80020EE1EF00001C551D9260001C651DA22D9
:1019C800010EDF6E000120EE10F00001C551D9268E
:1019D8000001C651DA22DF50C96EC688120004C061
:1019E8000AF003C009F002C008F001C007F00ED0E9
:1019F80009C0D9FF0AC0DAFF07C0E1FF08C0E2FF4B
:101A0800DFCFE7FF094A0A2A074A082A0506D8A0AD
:101A180006060528D8B40628D8B41200E9D7F2ACCF
:101A280007D0000E0001836F000E0001826F1200C4
:101A380044EC0EF00001815100018011D8B407D0A8
:101A4800000E0001836F000E0001826F1200000E6D
:101A58000001836F010E0001826F12000001C46F44
:101A68000101010E0101016F0101660E0101006F04
:101A7800C4C002F101010DC104F101010CC103F15F
:101A880001010FC106F101010EC105F1C6EC05F017
:101A980012000001C46F0201020E0101016F020170
:101AA800570E0101006FC4C002F101010DC104F11C
:101AB80001010CC103F101010FC106F101010EC1C1
:101AC80005F1C6EC05F0120000019C6F0301030E3E
:101AD80000018B6F0301000E00018A6F9CC08CF01F
:101AE800000199C08EF0000198C08DF000019BC0E4
:101AF80090F000019AC08FF067EC06F01200000128
:101B080020EE56F000018051D92600018151DA22D9
:101B1800DF500001826F00018251110DF350000166
:101B28008025D96EF45000018121DA6EDF50120051
:101B38000001C36F0301030E0101016F0301000ED1
:101B48000101006FC3C002F10BC103F101010DC116
:101B580005F101010CC104F106EC07F012000001C7
:101B6800C36F0201020E0101016F0201000E0101A3
:101B7800006FC3C002F10BC103F101010DC105F1F2
:101B880001010CC104F106EC07F012000001996F85
:101B98000201020E00018B6F0201570E00018A6FCD
:101BA80099C08CF096C08DF0000198C08FF00001AC
:101BB80097C08EF08EEC07F012000001B86F948683
:101BC8009488B8C0C8FF000EC76E000EC66E000E1F
:101BD800C56E0E0EC612C78E94869488C580C68AB6
:101BE80012001D6E0201020E0C6E0201000E0B6E39
:101BF8001DC00DF01AC00FF019C00EF01CC011F076
:101C08001BC010F014EC08F012001A6E0101010E4E
:101C18000C6E0101660E0B6E1AC00DF017C00EF0A7
:101C280019C010F018C00FF0B1EC09F01200948E32
:101C3800949CB886AC84040EB06EE10EAF6EAC987E
:101C4800AB8E9F989D989D8AAC8AAB8812001F0E18
:101C580001010B6F01010FC10DF101010EC10CF162
:101C6800040EB3EC0DF00001C46F9D881200B8C0DB
:101C7800D9FFB9C0DAFF000EDE6E000EDD6E12006D
:101C8800000EF2AE010E0001806F0001816B1200A0
:101C98000001BFC0C1F00001BEC0C0F01200000EBC
:101CA800956E939093921200D08EF28EF28C120061
:101CB8008C9C8C8C8C9C12008C9A8C8A8C9A12002E
:101CC8008C988C888C9812008C948C848C9412003C
:101CD8008C9C8C8C8C9C12008C9A8C8A8C9A12000E
:101CE800D38E030012008A7012008A72120001005B
:067FF80080F4C5FFFFF15B
:00000001FF
